{
  "contractName": "InfinityDice",
  "abi": [
    {
      "constant": false,
      "inputs": [
        {
          "name": "newTime",
          "type": "uint256"
        }
      ],
      "name": "setOraclizeQueryMaxTime",
      "outputs": [],
      "payable": false,
      "stateMutability": "nonpayable",
      "type": "function"
    },
    {
      "constant": true,
      "inputs": [],
      "name": "MAXWIN_inTHOUSANDTHPERCENTS",
      "outputs": [
        {
          "name": "",
          "type": "uint8"
        }
      ],
      "payable": false,
      "stateMutability": "view",
      "type": "function"
    },
    {
      "constant": true,
      "inputs": [],
      "name": "HOUSEEDGE_inTHOUSANDTHPERCENTS",
      "outputs": [
        {
          "name": "",
          "type": "uint8"
        }
      ],
      "payable": false,
      "stateMutability": "view",
      "type": "function"
    },
    {
      "constant": true,
      "inputs": [],
      "name": "DEVELOPERSFUND",
      "outputs": [
        {
          "name": "",
          "type": "uint256"
        }
      ],
      "payable": false,
      "stateMutability": "view",
      "type": "function"
    },
    {
      "constant": true,
      "inputs": [],
      "name": "LIABILITIES",
      "outputs": [
        {
          "name": "",
          "type": "uint256"
        }
      ],
      "payable": false,
      "stateMutability": "view",
      "type": "function"
    },
    {
      "constant": false,
      "inputs": [
        {
          "name": "houseEdgeInThousandthPercents",
          "type": "uint8"
        }
      ],
      "name": "setHouseEdge",
      "outputs": [],
      "payable": false,
      "stateMutability": "nonpayable",
      "type": "function"
    },
    {
      "constant": true,
      "inputs": [],
      "name": "OWNER",
      "outputs": [
        {
          "name": "",
          "type": "address"
        }
      ],
      "payable": false,
      "stateMutability": "view",
      "type": "function"
    },
    {
      "constant": true,
      "inputs": [],
      "name": "AMOUNTWAGERED",
      "outputs": [
        {
          "name": "",
          "type": "uint256"
        }
      ],
      "payable": false,
      "stateMutability": "view",
      "type": "function"
    },
    {
      "constant": true,
      "inputs": [],
      "name": "MINBET",
      "outputs": [
        {
          "name": "",
          "type": "uint256"
        }
      ],
      "payable": false,
      "stateMutability": "view",
      "type": "function"
    },
    {
      "constant": false,
      "inputs": [
        {
          "name": "_queryId",
          "type": "bytes32"
        },
        {
          "name": "_result",
          "type": "string"
        }
      ],
      "name": "__callback",
      "outputs": [],
      "payable": false,
      "stateMutability": "nonpayable",
      "type": "function"
    },
    {
      "constant": false,
      "inputs": [
        {
          "name": "myid",
          "type": "bytes32"
        },
        {
          "name": "result",
          "type": "string"
        },
        {
          "name": "proof",
          "type": "bytes"
        }
      ],
      "name": "__callback",
      "outputs": [],
      "payable": false,
      "stateMutability": "nonpayable",
      "type": "function"
    },
    {
      "constant": true,
      "inputs": [
        {
          "name": "",
          "type": "bytes32"
        }
      ],
      "name": "diceData",
      "outputs": [
        {
          "name": "player",
          "type": "address"
        },
        {
          "name": "paidOut",
          "type": "bool"
        },
        {
          "name": "start",
          "type": "uint256"
        },
        {
          "name": "etherReceived",
          "type": "uint256"
        },
        {
          "name": "betPerRoll",
          "type": "uint256"
        },
        {
          "name": "rolls",
          "type": "uint16"
        },
        {
          "name": "rollUnder",
          "type": "uint8"
        }
      ],
      "payable": false,
      "stateMutability": "view",
      "type": "function"
    },
    {
      "constant": false,
      "inputs": [],
      "name": "acceptEtherFromBankrollContract",
      "outputs": [],
      "payable": true,
      "stateMutability": "payable",
      "type": "function"
    },
    {
      "constant": false,
      "inputs": [
        {
          "name": "newMaxWinInThousandthPercents",
          "type": "uint8"
        }
      ],
      "name": "setMaxWin",
      "outputs": [],
      "payable": false,
      "stateMutability": "nonpayable",
      "type": "function"
    },
    {
      "constant": false,
      "inputs": [
        {
          "name": "oraclizeQueryId",
          "type": "bytes32"
        }
      ],
      "name": "refund",
      "outputs": [],
      "payable": false,
      "stateMutability": "nonpayable",
      "type": "function"
    },
    {
      "constant": false,
      "inputs": [
        {
          "name": "minBet",
          "type": "uint256"
        }
      ],
      "name": "setMinBetForOraclize",
      "outputs": [],
      "payable": false,
      "stateMutability": "nonpayable",
      "type": "function"
    },
    {
      "constant": true,
      "inputs": [],
      "name": "ORACLIZEQUERYMAXTIME",
      "outputs": [
        {
          "name": "",
          "type": "uint256"
        }
      ],
      "payable": false,
      "stateMutability": "view",
      "type": "function"
    },
    {
      "constant": false,
      "inputs": [
        {
          "name": "developer",
          "type": "address"
        }
      ],
      "name": "payDevelopersFund",
      "outputs": [],
      "payable": false,
      "stateMutability": "nonpayable",
      "type": "function"
    },
    {
      "constant": false,
      "inputs": [
        {
          "name": "minBet",
          "type": "uint256"
        }
      ],
      "name": "setMinBet",
      "outputs": [],
      "payable": false,
      "stateMutability": "nonpayable",
      "type": "function"
    },
    {
      "constant": false,
      "inputs": [
        {
          "name": "gasPrice",
          "type": "uint256"
        }
      ],
      "name": "setOraclizeQueryGasPrice",
      "outputs": [],
      "payable": false,
      "stateMutability": "nonpayable",
      "type": "function"
    },
    {
      "constant": true,
      "inputs": [],
      "name": "BANKROLL",
      "outputs": [
        {
          "name": "",
          "type": "uint256"
        }
      ],
      "payable": false,
      "stateMutability": "view",
      "type": "function"
    },
    {
      "constant": false,
      "inputs": [
        {
          "name": "betPerRoll",
          "type": "uint256"
        },
        {
          "name": "rolls",
          "type": "uint16"
        },
        {
          "name": "rollUnder",
          "type": "uint8"
        }
      ],
      "name": "play",
      "outputs": [],
      "payable": true,
      "stateMutability": "payable",
      "type": "function"
    },
    {
      "constant": true,
      "inputs": [],
      "name": "MINBET_forORACLIZE",
      "outputs": [
        {
          "name": "",
          "type": "uint256"
        }
      ],
      "payable": false,
      "stateMutability": "view",
      "type": "function"
    },
    {
      "constant": true,
      "inputs": [],
      "name": "BANKROLLER",
      "outputs": [
        {
          "name": "",
          "type": "address"
        }
      ],
      "payable": false,
      "stateMutability": "view",
      "type": "function"
    },
    {
      "constant": false,
      "inputs": [
        {
          "name": "paused",
          "type": "bool"
        }
      ],
      "name": "setGamePaused",
      "outputs": [],
      "payable": false,
      "stateMutability": "nonpayable",
      "type": "function"
    },
    {
      "constant": false,
      "inputs": [
        {
          "name": "amountToSend",
          "type": "uint256"
        }
      ],
      "name": "payEtherToBankrollContract",
      "outputs": [],
      "payable": false,
      "stateMutability": "nonpayable",
      "type": "function"
    },
    {
      "constant": true,
      "inputs": [],
      "name": "BANKROLLERINSTANCE",
      "outputs": [
        {
          "name": "",
          "type": "address"
        }
      ],
      "payable": false,
      "stateMutability": "view",
      "type": "function"
    },
    {
      "constant": false,
      "inputs": [
        {
          "name": "bankrollAddress",
          "type": "address"
        }
      ],
      "name": "setBankrollerContractOnce",
      "outputs": [],
      "payable": false,
      "stateMutability": "nonpayable",
      "type": "function"
    },
    {
      "constant": true,
      "inputs": [],
      "name": "AMOUNTPAIDOUT",
      "outputs": [
        {
          "name": "",
          "type": "uint256"
        }
      ],
      "payable": false,
      "stateMutability": "view",
      "type": "function"
    },
    {
      "constant": true,
      "inputs": [],
      "name": "ORACLIZEGASPRICE",
      "outputs": [
        {
          "name": "",
          "type": "uint256"
        }
      ],
      "payable": false,
      "stateMutability": "view",
      "type": "function"
    },
    {
      "constant": false,
      "inputs": [
        {
          "name": "newOwner",
          "type": "address"
        }
      ],
      "name": "transferOwnership",
      "outputs": [],
      "payable": false,
      "stateMutability": "nonpayable",
      "type": "function"
    },
    {
      "constant": true,
      "inputs": [],
      "name": "GAMEPAUSED",
      "outputs": [
        {
          "name": "",
          "type": "bool"
        }
      ],
      "payable": false,
      "stateMutability": "view",
      "type": "function"
    },
    {
      "constant": false,
      "inputs": [],
      "name": "emergencySelfDestruct",
      "outputs": [],
      "payable": false,
      "stateMutability": "nonpayable",
      "type": "function"
    },
    {
      "constant": true,
      "inputs": [],
      "name": "GAMESPLAYED",
      "outputs": [
        {
          "name": "",
          "type": "uint256"
        }
      ],
      "payable": false,
      "stateMutability": "view",
      "type": "function"
    },
    {
      "inputs": [],
      "payable": false,
      "stateMutability": "nonpayable",
      "type": "constructor"
    },
    {
      "anonymous": false,
      "inputs": [
        {
          "indexed": true,
          "name": "oraclizeQueryId",
          "type": "bytes32"
        }
      ],
      "name": "BuyRolls",
      "type": "event"
    },
    {
      "anonymous": false,
      "inputs": [
        {
          "indexed": true,
          "name": "oraclizeQueryId",
          "type": "bytes32"
        }
      ],
      "name": "LedgerProofFailed",
      "type": "event"
    },
    {
      "anonymous": false,
      "inputs": [
        {
          "indexed": true,
          "name": "oraclizeQueryId",
          "type": "bytes32"
        },
        {
          "indexed": false,
          "name": "amount",
          "type": "uint256"
        }
      ],
      "name": "Refund",
      "type": "event"
    },
    {
      "anonymous": false,
      "inputs": [
        {
          "indexed": false,
          "name": "actualRolls",
          "type": "uint16"
        },
        {
          "indexed": false,
          "name": "data1",
          "type": "uint256"
        },
        {
          "indexed": false,
          "name": "data2",
          "type": "uint256"
        },
        {
          "indexed": false,
          "name": "data3",
          "type": "uint256"
        },
        {
          "indexed": false,
          "name": "data4",
          "type": "uint256"
        }
      ],
      "name": "DiceSmallBet",
      "type": "event"
    },
    {
      "anonymous": false,
      "inputs": [
        {
          "indexed": true,
          "name": "oraclizeQueryId",
          "type": "bytes32"
        },
        {
          "indexed": false,
          "name": "actualRolls",
          "type": "uint16"
        },
        {
          "indexed": false,
          "name": "data1",
          "type": "uint256"
        },
        {
          "indexed": false,
          "name": "data2",
          "type": "uint256"
        },
        {
          "indexed": false,
          "name": "data3",
          "type": "uint256"
        },
        {
          "indexed": false,
          "name": "data4",
          "type": "uint256"
        }
      ],
      "name": "DiceLargeBet",
      "type": "event"
    }
  ],
  "bytecode": "0x606060405234156200001057600080fd5b620000346402540be4006200016d640100000000026200257e176401000000009004565b6402540be400601181905550736f485c8bf6fc43ea212e93bbf8ce046c7f1cb475600260006101000a81548173ffffffffffffffffffffffffffffffffffffffff021916908373ffffffffffffffffffffffffffffffffffffffff1602179055506000600a819055506000600b819055506000600c819055506000601260026101000a81548160ff021916908315150217905550615460600e81905550671158e460913d0000600f81905550662386f26fc10000601081905550600a601260006101000a81548160ff021916908360ff1602179055506014601260016101000a81548160ff021916908360ff16021790555033601260036101000a81548173ffffffffffffffffffffffffffffffffffffffff021916908373ffffffffffffffffffffffffffffffffffffffff16021790555062000b22565b6000600260009054906101000a900473ffffffffffffffffffffffffffffffffffffffff1673ffffffffffffffffffffffffffffffffffffffff161480620001f557506000620001f3600260009054906101000a900473ffffffffffffffffffffffffffffffffffffffff16620004b46401000000000262002c27176401000000009004565b145b156200021d576200021b6000620004bf6401000000000262002c32176401000000009004565b505b600260009054906101000a900473ffffffffffffffffffffffffffffffffffffffff1673ffffffffffffffffffffffffffffffffffffffff166338cc48316000604051602001526040518163ffffffff167c0100000000000000000000000000000000000000000000000000000000028152600401602060405180830381600087803b1515620002ac57600080fd5b6102c65a03f11515620002be57600080fd5b5050506040518051905073ffffffffffffffffffffffffffffffffffffffff16600360009054906101000a900473ffffffffffffffffffffffffffffffffffffffff1673ffffffffffffffffffffffffffffffffffffffff161415156200040b57600260009054906101000a900473ffffffffffffffffffffffffffffffffffffffff1673ffffffffffffffffffffffffffffffffffffffff166338cc48316000604051602001526040518163ffffffff167c0100000000000000000000000000000000000000000000000000000000028152600401602060405180830381600087803b1515620003ae57600080fd5b6102c65a03f11515620003c057600080fd5b50505060405180519050600360006101000a81548173ffffffffffffffffffffffffffffffffffffffff021916908373ffffffffffffffffffffffffffffffffffffffff1602179055505b600360009054906101000a900473ffffffffffffffffffffffffffffffffffffffff1673ffffffffffffffffffffffffffffffffffffffff1663ca6ad1e4826040518263ffffffff167c010000000000000000000000000000000000000000000000000000000002815260040180828152602001915050600060405180830381600087803b15156200049c57600080fd5b6102c65a03f11515620004ae57600080fd5b50505050565b6000813b9050919050565b600080620004f5731d3b2638a7cc9f2cb3d298a3da7a90b67e5506ed620004b46401000000000262002c27176401000000009004565b1115620005af57731d3b2638a7cc9f2cb3d298a3da7a90b67e5506ed600260006101000a81548173ffffffffffffffffffffffffffffffffffffffff021916908373ffffffffffffffffffffffffffffffffffffffff160217905550620005a56040805190810160405280600b81526020017f6574685f6d61696e6e657400000000000000000000000000000000000000000081525062000a576401000000000262003770176401000000009004565b6001905062000a52565b6000620005e473c03a2615d5efaf5f49f60b7bb6583eaec212fdf1620004b46401000000000262002c27176401000000009004565b11156200069e5773c03a2615d5efaf5f49f60b7bb6583eaec212fdf1600260006101000a81548173ffffffffffffffffffffffffffffffffffffffff021916908373ffffffffffffffffffffffffffffffffffffffff160217905550620006946040805190810160405280600c81526020017f6574685f726f707374656e33000000000000000000000000000000000000000081525062000a576401000000000262003770176401000000009004565b6001905062000a52565b6000620006d373b7a07bcf2ba2f2703b24c0691b5278999c59ac7e620004b46401000000000262002c27176401000000009004565b11156200078d5773b7a07bcf2ba2f2703b24c0691b5278999c59ac7e600260006101000a81548173ffffffffffffffffffffffffffffffffffffffff021916908373ffffffffffffffffffffffffffffffffffffffff160217905550620007836040805190810160405280600981526020017f6574685f6b6f76616e000000000000000000000000000000000000000000000081525062000a576401000000000262003770176401000000009004565b6001905062000a52565b6000620007c273146500cfd35b22e4a392fe0adc06de1a1368ed48620004b46401000000000262002c27176401000000009004565b11156200087c5773146500cfd35b22e4a392fe0adc06de1a1368ed48600260006101000a81548173ffffffffffffffffffffffffffffffffffffffff021916908373ffffffffffffffffffffffffffffffffffffffff160217905550620008726040805190810160405280600b81526020017f6574685f72696e6b65627900000000000000000000000000000000000000000081525062000a576401000000000262003770176401000000009004565b6001905062000a52565b6000620008b1736f485c8bf6fc43ea212e93bbf8ce046c7f1cb475620004b46401000000000262002c27176401000000009004565b11156200091757736f485c8bf6fc43ea212e93bbf8ce046c7f1cb475600260006101000a81548173ffffffffffffffffffffffffffffffffffffffff021916908373ffffffffffffffffffffffffffffffffffffffff1602179055506001905062000a52565b60006200094c7320e12a1f859b3feae5fb2a0a32c18f5a65555bbf620004b46401000000000262002c27176401000000009004565b1115620009b2577320e12a1f859b3feae5fb2a0a32c18f5a65555bbf600260006101000a81548173ffffffffffffffffffffffffffffffffffffffff021916908373ffffffffffffffffffffffffffffffffffffffff1602179055506001905062000a52565b6000620009e77351efaf4c8b3c9afbd5ab9f4bbc82784ab6ef8faa620004b46401000000000262002c27176401000000009004565b111562000a4d577351efaf4c8b3c9afbd5ab9f4bbc82784ab6ef8faa600260006101000a81548173ffffffffffffffffffffffffffffffffffffffff021916908373ffffffffffffffffffffffffffffffffffffffff1602179055506001905062000a52565b600090505b919050565b806004908051906020019062000a6f92919062000a73565b5050565b828054600181600116156101000203166002900490600052602060002090601f016020900481019282601f1062000ab657805160ff191683800117855562000ae7565b8280016001018555821562000ae7579182015b8281111562000ae657825182559160200191906001019062000ac9565b5b50905062000af6919062000afa565b5090565b62000b1f91905b8082111562000b1b57600081600090555060010162000b01565b5090565b90565b6143898062000b326000396000f3006060604052600436106101ac576000357c0100000000000000000000000000000000000000000000000000000000900463ffffffff16806301f9a0aa146101b157806306784b81146101d4578063076a39a01461020357806307efbf2b1461023257806309b481b01461025b5780630c55975714610284578063117803e3146102aa57806313d73a08146102ff578063245678d61461032857806327dc297e1461035157806338bbfa50146103bb578063416bc745146104685780635cfd360a1461050b5780635eeeee22146105155780637249fbb61461053b5780637c10e00e146105625780637ea17a1d146105855780638579c10e146105ae57806388ea41b9146105e75780638aa19ef71461060a5780638e4ab74b1461062d578063a73c0ba214610656578063ad64fa5c14610687578063aefbbf2a146106b0578063b5c14adb14610705578063c0c370881461072a578063c179c9651461074d578063cc783c5e146107a2578063d1b37c51146107db578063dbfc74cb14610804578063f2fde38b1461082d578063f331020c14610866578063f4463fb714610893578063fab2e425146108a8575b600080fd5b34156101bc57600080fd5b6101d260048080359060200190919050506108d1565b005b34156101df57600080fd5b6101e7610937565b604051808260ff1660ff16815260200191505060405180910390f35b341561020e57600080fd5b61021661094a565b604051808260ff1660ff16815260200191505060405180910390f35b341561023d57600080fd5b61024561095d565b6040518082815260200191505060405180910390f35b341561026657600080fd5b61026e610963565b6040518082815260200191505060405180910390f35b341561028f57600080fd5b6102a8600480803560ff16906020019091905050610969565b005b34156102b557600080fd5b6102bd6109f3565b604051808273ffffffffffffffffffffffffffffffffffffffff1673ffffffffffffffffffffffffffffffffffffffff16815260200191505060405180910390f35b341561030a57600080fd5b610312610a19565b6040518082815260200191505060405180910390f35b341561033357600080fd5b61033b610a1f565b6040518082815260200191505060405180910390f35b341561035c57600080fd5b6103b960048080356000191690602001909190803590602001908201803590602001908080601f01602080910402602001604051908101604052809392919081815260200183838082843782019150505050505091905050610a25565b005b34156103c657600080fd5b61046660048080356000191690602001909190803590602001908201803590602001908080601f0160208091040260200160405190810160405280939291908181526020018383808284378201915050505050509190803590602001908201803590602001908080601f01602080910402602001604051908101604052809392919081815260200183838082843782019150505050505091905050611127565b005b341561047357600080fd5b61048d60048080356000191690602001909190505061112c565b604051808873ffffffffffffffffffffffffffffffffffffffff1673ffffffffffffffffffffffffffffffffffffffff168152602001871515151581526020018681526020018581526020018481526020018361ffff1661ffff1681526020018260ff1660ff16815260200197505050505050505060405180910390f35b6105136111b6565b005b341561052057600080fd5b610539600480803560ff16906020019091905050611224565b005b341561054657600080fd5b6105606004808035600019169060200190919050506112ae565b005b341561056d57600080fd5b6105836004808035906020019091905050611560565b005b341561059057600080fd5b6105986115c6565b6040518082815260200191505060405180910390f35b34156105b957600080fd5b6105e5600480803573ffffffffffffffffffffffffffffffffffffffff169060200190919050506115cc565b005b34156105f257600080fd5b610608600480803590602001909190505061167b565b005b341561061557600080fd5b61062b60048080359060200190919050506116e1565b005b341561063857600080fd5b610640611750565b6040518082815260200191505060405180910390f35b610685600480803590602001909190803561ffff1690602001909190803560ff16906020019091905050611756565b005b341561069257600080fd5b61069a611e0d565b6040518082815260200191505060405180910390f35b34156106bb57600080fd5b6106c3611e13565b604051808273ffffffffffffffffffffffffffffffffffffffff1673ffffffffffffffffffffffffffffffffffffffff16815260200191505060405180910390f35b341561071057600080fd5b61072860048080351515906020019091905050611e39565b005b341561073557600080fd5b61074b6004808035906020019091905050611eb2565b005b341561075857600080fd5b610760611fc9565b604051808273ffffffffffffffffffffffffffffffffffffffff1673ffffffffffffffffffffffffffffffffffffffff16815260200191505060405180910390f35b34156107ad57600080fd5b6107d9600480803573ffffffffffffffffffffffffffffffffffffffff16906020019091905050611fef565b005b34156107e657600080fd5b6107ee61212a565b6040518082815260200191505060405180910390f35b341561080f57600080fd5b610817612130565b6040518082815260200191505060405180910390f35b341561083857600080fd5b610864600480803573ffffffffffffffffffffffffffffffffffffffff16906020019091905050612136565b005b341561087157600080fd5b6108796121d6565b604051808215151515815260200191505060405180910390f35b341561089e57600080fd5b6108a66121e9565b005b34156108b357600080fd5b6108bb61225e565b6040518082815260200191505060405180910390f35b601260039054906101000a900473ffffffffffffffffffffffffffffffffffffffff1673ffffffffffffffffffffffffffffffffffffffff163373ffffffffffffffffffffffffffffffffffffffff1614151561092d57600080fd5b80600e8190555050565b601260019054906101000a900460ff1681565b601260009054906101000a900460ff1681565b600d5481565b60095481565b601260039054906101000a900473ffffffffffffffffffffffffffffffffffffffff1673ffffffffffffffffffffffffffffffffffffffff163373ffffffffffffffffffffffffffffffffffffffff161480156109ca575060328160ff1611155b15156109d557600080fd5b80601260006101000a81548160ff021916908360ff16021790555050565b601260039054906101000a900473ffffffffffffffffffffffffffffffffffffffff1681565b600a5481565b60105481565b610a2d6141dd565b6000806000610a3a61423a565b600080600760008a6000191660001916815260200190815260200160002060e060405190810160405290816000820160009054906101000a900473ffffffffffffffffffffffffffffffffffffffff1673ffffffffffffffffffffffffffffffffffffffff1673ffffffffffffffffffffffffffffffffffffffff1681526020016000820160149054906101000a900460ff161515151581526020016001820154815260200160028201548152602001600382015481526020016004820160009054906101000a900461ffff1661ffff1661ffff1681526020016004820160029054906101000a900460ff1660ff1660ff16815250509650610b3a612264565b73ffffffffffffffffffffffffffffffffffffffff163373ffffffffffffffffffffffffffffffffffffffff16148015610b7657508660200151155b8015610bb35750600073ffffffffffffffffffffffffffffffffffffffff16876000015173ffffffffffffffffffffffffffffffffffffffff1614155b8015610bc55750866060015160095410155b1515610bd057600080fd5b600080141515610cf7576001600760008b6000191660001916815260200190815260200160002060000160146101000a81548160ff02191690831515021790555086606001516009600082825403925050819055508660600151600a60008282540392505081905550866000015173ffffffffffffffffffffffffffffffffffffffff166108fc88606001519081150290604051600060405180830381858888f193505050501515610c8157600080fd5b88600019167f2576aa524eff2f518901d6458ad267a59debacb7bf8700998dba20313f17dce660405160405180910390a288600019167fdda15e30b719d5c232faad22f4c2c1e8994336c026868ed0d3bc4aac71977abb88606001516040518082815260200191505060405180910390a261111c565b600c549550601260009054906101000a900460ff169450866060015193506004604051805910610d245750595b90808252806020026020018201604052509250600091505b8660a0015161ffff168261ffff16108015610d5b575086608001518410155b15610f505785806001019650508660c0015160ff16600160648a896040518083805190602001908083835b602083101515610dab5780518252602082019150602081019050602083039250610d86565b6001836020036101000a03801982511681845116808217855250505050505090500182815260200192505050604051809103902060019004811515610dec57fe5b060160ff161015610f365786608001516103e88660ff166103e80361ffff1660018a60c001510360ff1660648b6080015102811515610e2757fe5b0402811515610e3257fe5b04038401935060ff8261ffff16111515610e79578160ff0361ffff1660020a836000815181101515610e6057fe5b9060200190602002018181510191508181525050610f31565b6101ff8261ffff16111515610ebc57816101ff0361ffff1660020a836001815181101515610ea357fe5b9060200190602002018181510191508181525050610f30565b6102ff8261ffff16111515610eff57816102ff0361ffff1660020a836002815181101515610ee657fe5b9060200190602002018181510191508181525050610f2f565b816103ff0361ffff1660020a836003815181101515610f1a57fe5b90602001906020020181815101915081815250505b5b5b610f43565b6001876080015103840393505b8180600101925050610d3c565b6113888261ffff168660ff1689608001510202811515610f6c57fe5b04905080600d6000828254019250508190555080840187606001510360086000828254019250508190555086606001516009600082825403925050819055508161ffff16876080015102600a6000828254019250508190555083600b6000828254019250508190555085600c819055506001600760008b6000191660001916815260200190815260200160002060000160146101000a81548160ff021916908315150217905550866000015173ffffffffffffffffffffffffffffffffffffffff166108fc859081150290604051600060405180830381858888f19350505050151561105757600080fd5b88600019167fb9d44d01b9e36e98413c2ed40b61f560e40595343f3cc734c988da4db5dd65638385600081518110151561108d57fe5b906020019060200201518660018151811015156110a657fe5b906020019060200201518760028151811015156110bf57fe5b906020019060200201518860038151811015156110d857fe5b90602001906020020151604051808661ffff1661ffff1681526020018581526020018481526020018381526020018281526020019550505050505060405180910390a25b505050505050505050565b505050565b60076020528060005260406000206000915090508060000160009054906101000a900473ffffffffffffffffffffffffffffffffffffffff16908060000160149054906101000a900460ff16908060010154908060020154908060030154908060040160009054906101000a900461ffff16908060040160029054906101000a900460ff16905087565b601360009054906101000a900473ffffffffffffffffffffffffffffffffffffffff1673ffffffffffffffffffffffffffffffffffffffff163373ffffffffffffffffffffffffffffffffffffffff1614151561121257600080fd5b34600860008282540192505081905550565b601260039054906101000a900473ffffffffffffffffffffffffffffffffffffffff1673ffffffffffffffffffffffffffffffffffffffff163373ffffffffffffffffffffffffffffffffffffffff16148015611285575060328160ff1611155b151561129057600080fd5b80601260016101000a81548160ff021916908360ff16021790555050565b6112b66141dd565b60076000836000191660001916815260200190815260200160002060e060405190810160405290816000820160009054906101000a900473ffffffffffffffffffffffffffffffffffffffff1673ffffffffffffffffffffffffffffffffffffffff1673ffffffffffffffffffffffffffffffffffffffff1681526020016000820160149054906101000a900460ff161515151581526020016001820154815260200160028201548152602001600382015481526020016004820160009054906101000a900461ffff1661ffff1661ffff1681526020016004820160029054906101000a900460ff1660ff1660ff16815250509050600e54816040015142031015801561144a5750601260039054906101000a900473ffffffffffffffffffffffffffffffffffffffff1673ffffffffffffffffffffffffffffffffffffffff163373ffffffffffffffffffffffffffffffffffffffff1614806114495750806000015173ffffffffffffffffffffffffffffffffffffffff163373ffffffffffffffffffffffffffffffffffffffff16145b5b801561145857508060200151155b801561146a5750806060015160095410155b151561147557600080fd5b600160076000846000191660001916815260200190815260200160002060000160146101000a81548160ff02191690831515021790555080606001516009600082825403925050819055508060600151600a60008282540392505081905550806000015173ffffffffffffffffffffffffffffffffffffffff166108fc82606001519081150290604051600060405180830381858888f19350505050151561151c57600080fd5b81600019167fdda15e30b719d5c232faad22f4c2c1e8994336c026868ed0d3bc4aac71977abb82606001516040518082815260200191505060405180910390a25050565b601260039054906101000a900473ffffffffffffffffffffffffffffffffffffffff1673ffffffffffffffffffffffffffffffffffffffff163373ffffffffffffffffffffffffffffffffffffffff161415156115bc57600080fd5b80600f8190555050565b600e5481565b6000601360009054906101000a900473ffffffffffffffffffffffffffffffffffffffff1673ffffffffffffffffffffffffffffffffffffffff163373ffffffffffffffffffffffffffffffffffffffff1614151561162a57600080fd5b600d5490506000600d819055508173ffffffffffffffffffffffffffffffffffffffff166108fc829081150290604051600060405180830381858888f19350505050151561167757600080fd5b5050565b601260039054906101000a900473ffffffffffffffffffffffffffffffffffffffff1673ffffffffffffffffffffffffffffffffffffffff163373ffffffffffffffffffffffffffffffffffffffff161415156116d757600080fd5b8060108190555050565b601260039054906101000a900473ffffffffffffffffffffffffffffffffffffffff1673ffffffffffffffffffffffffffffffffffffffff163373ffffffffffffffffffffffffffffffffffffffff1614151561173d57600080fd5b8060118190555061174d8161257e565b50565b60085481565b60008060008061176461423a565b6000806000601260029054906101000a900460ff161580156117865750600034115b801561179457506010548b10155b80156117a4575060008a61ffff16115b80156117b657506104008a61ffff1611155b80156117c25750348b11155b80156117d1575060018960ff16115b80156117e0575060648960ff16105b801561182357506103e8601260019054906101000a900460ff1660ff166008540281151561180a57fe5b0460018a0360ff1660648d0281151561181f57fe5b0411155b151561182e57600080fd5b600f548b1015611ba05743409750600c549650601260009054906101000a900460ff16955034945060046040518059106118655750595b90808252806020026020018201604052509350600092505b8961ffff168361ffff1610801561189457508a8510155b15611a305786806001019750508860ff16600160648a8a604051808360001916600019168152602001828152602001925050506040518091039020600190048115156118dc57fe5b060160ff161015611a1a578a6103e88760ff166103e80361ffff1660018c0360ff1660648f0281151561190b57fe5b040281151561191657fe5b04038501945060ff8361ffff1611151561195d578260ff0361ffff1660020a84600081518110151561194457fe5b9060200190602002018181510191508181525050611a15565b6101ff8361ffff161115156119a057826101ff0361ffff1660020a84600181518110151561198757fe5b9060200190602002018181510191508181525050611a14565b6102ff8361ffff161115156119e357826102ff0361ffff1660020a8460028151811015156119ca57fe5b9060200190602002018181510191508181525050611a13565b826103ff0361ffff1660020a8460038151811015156119fe57fe5b90602001906020020181815101915081815250505b5b5b611a23565b60018b03850394505b828060010193505061187d565b6113888361ffff168760ff168d0202811515611a4857fe5b04915081600d6000828254019250508190555034828601036008600082825403925050819055508261ffff168b02600a6000828254019250508190555084600b6000828254019250508190555086600c819055503373ffffffffffffffffffffffffffffffffffffffff166108fc869081150290604051600060405180830381858888f193505050501515611adc57600080fd5b7f761bc676cfa0910e8771779cdd123472fc93b1e3857f9eaa6a417b69f3185a1d83856000815181101515611b0d57fe5b90602001906020020151866001815181101515611b2657fe5b90602001906020020151876002815181101515611b3f57fe5b90602001906020020151886003815181101515611b5857fe5b90602001906020020151604051808661ffff1661ffff1681526020018581526020018481526020018381526020018281526020019550505050505060405180910390a1611e00565b6101008a61ffff16111515611bdd57611bbf6000601e6205b8d8612890565b90506011546205b8d802600860008282540392505081905550611c83565b6102008a61ffff16111515611c1a57611bfc6000601e6208c618612890565b90506011546208c61802600860008282540392505081905550611c82565b6103008a61ffff16111515611c5757611c396000601e620bd358612890565b9050601154620bd35802600860008282540392505081905550611c81565b611c676000601e620f4240612890565b9050601154620f4240026008600082825403925050819055505b5b5b60e0604051908101604052803373ffffffffffffffffffffffffffffffffffffffff1681526020016000151581526020014281526020013481526020018c81526020018b61ffff1681526020018a60ff1681525060076000836000191660001916815260200190815260200160002060008201518160000160006101000a81548173ffffffffffffffffffffffffffffffffffffffff021916908373ffffffffffffffffffffffffffffffffffffffff16021790555060208201518160000160146101000a81548160ff02191690831515021790555060408201518160010155606082015181600201556080820151816003015560a08201518160040160006101000a81548161ffff021916908361ffff16021790555060c08201518160040160026101000a81548160ff021916908360ff1602179055509050503460096000828254019250508190555080600019167f9ae1d678e016291b2e50d8a16a81efa0559e08e5b3e2db4d33def1a0c9d7120260405160405180910390a25b5050505050505050505050565b600f5481565b601360009054906101000a900473ffffffffffffffffffffffffffffffffffffffff1681565b601260039054906101000a900473ffffffffffffffffffffffffffffffffffffffff1673ffffffffffffffffffffffffffffffffffffffff163373ffffffffffffffffffffffffffffffffffffffff16141515611e9557600080fd5b80601260026101000a81548160ff02191690831515021790555050565b601360009054906101000a900473ffffffffffffffffffffffffffffffffffffffff1673ffffffffffffffffffffffffffffffffffffffff163373ffffffffffffffffffffffffffffffffffffffff16148015611f1157506008548111155b1515611f1c57600080fd5b80600860008282540392505081905550601460009054906101000a900473ffffffffffffffffffffffffffffffffffffffff1673ffffffffffffffffffffffffffffffffffffffff1663fbe00e8e826040518263ffffffff167c01000000000000000000000000000000000000000000000000000000000281526004016000604051808303818588803b1515611fb157600080fd5b6125ee5a03f11515611fc257600080fd5b5050505050565b601460009054906101000a900473ffffffffffffffffffffffffffffffffffffffff1681565b601260039054906101000a900473ffffffffffffffffffffffffffffffffffffffff1673ffffffffffffffffffffffffffffffffffffffff163373ffffffffffffffffffffffffffffffffffffffff1614801561209a5750600073ffffffffffffffffffffffffffffffffffffffff16601360009054906101000a900473ffffffffffffffffffffffffffffffffffffffff1673ffffffffffffffffffffffffffffffffffffffff16145b15156120a557600080fd5b80601360006101000a81548173ffffffffffffffffffffffffffffffffffffffff021916908373ffffffffffffffffffffffffffffffffffffffff16021790555080601460006101000a81548173ffffffffffffffffffffffffffffffffffffffff021916908373ffffffffffffffffffffffffffffffffffffffff16021790555050565b600b5481565b60115481565b601260039054906101000a900473ffffffffffffffffffffffffffffffffffffffff1673ffffffffffffffffffffffffffffffffffffffff163373ffffffffffffffffffffffffffffffffffffffff1614151561219257600080fd5b80601260036101000a81548173ffffffffffffffffffffffffffffffffffffffff021916908373ffffffffffffffffffffffffffffffffffffffff16021790555050565b601260029054906101000a900460ff1681565b601260039054906101000a900473ffffffffffffffffffffffffffffffffffffffff1673ffffffffffffffffffffffffffffffffffffffff163373ffffffffffffffffffffffffffffffffffffffff1614151561224557600080fd5b3373ffffffffffffffffffffffffffffffffffffffff16ff5b600c5481565b600080600260009054906101000a900473ffffffffffffffffffffffffffffffffffffffff1673ffffffffffffffffffffffffffffffffffffffff1614806122d6575060006122d4600260009054906101000a900473ffffffffffffffffffffffffffffffffffffffff16612c27565b145b156122e7576122e56000612c32565b505b600260009054906101000a900473ffffffffffffffffffffffffffffffffffffffff1673ffffffffffffffffffffffffffffffffffffffff166338cc48316000604051602001526040518163ffffffff167c0100000000000000000000000000000000000000000000000000000000028152600401602060405180830381600087803b151561237557600080fd5b6102c65a03f1151561238657600080fd5b5050506040518051905073ffffffffffffffffffffffffffffffffffffffff16600360009054906101000a900473ffffffffffffffffffffffffffffffffffffffff1673ffffffffffffffffffffffffffffffffffffffff161415156124d057600260009054906101000a900473ffffffffffffffffffffffffffffffffffffffff1673ffffffffffffffffffffffffffffffffffffffff166338cc48316000604051602001526040518163ffffffff167c0100000000000000000000000000000000000000000000000000000000028152600401602060405180830381600087803b151561247457600080fd5b6102c65a03f1151561248557600080fd5b50505060405180519050600360006101000a81548173ffffffffffffffffffffffffffffffffffffffff021916908373ffffffffffffffffffffffffffffffffffffffff1602179055505b600360009054906101000a900473ffffffffffffffffffffffffffffffffffffffff1673ffffffffffffffffffffffffffffffffffffffff1663c281d19e6000604051602001526040518163ffffffff167c0100000000000000000000000000000000000000000000000000000000028152600401602060405180830381600087803b151561255e57600080fd5b6102c65a03f1151561256f57600080fd5b50505060405180519050905090565b6000600260009054906101000a900473ffffffffffffffffffffffffffffffffffffffff1673ffffffffffffffffffffffffffffffffffffffff1614806125ef575060006125ed600260009054906101000a900473ffffffffffffffffffffffffffffffffffffffff16612c27565b145b15612600576125fe6000612c32565b505b600260009054906101000a900473ffffffffffffffffffffffffffffffffffffffff1673ffffffffffffffffffffffffffffffffffffffff166338cc48316000604051602001526040518163ffffffff167c0100000000000000000000000000000000000000000000000000000000028152600401602060405180830381600087803b151561268e57600080fd5b6102c65a03f1151561269f57600080fd5b5050506040518051905073ffffffffffffffffffffffffffffffffffffffff16600360009054906101000a900473ffffffffffffffffffffffffffffffffffffffff1673ffffffffffffffffffffffffffffffffffffffff161415156127e957600260009054906101000a900473ffffffffffffffffffffffffffffffffffffffff1673ffffffffffffffffffffffffffffffffffffffff166338cc48316000604051602001526040518163ffffffff167c0100000000000000000000000000000000000000000000000000000000028152600401602060405180830381600087803b151561278d57600080fd5b6102c65a03f1151561279e57600080fd5b50505060405180519050600360006101000a81548173ffffffffffffffffffffffffffffffffffffffff021916908373ffffffffffffffffffffffffffffffffffffffff1602179055505b600360009054906101000a900473ffffffffffffffffffffffffffffffffffffffff1673ffffffffffffffffffffffffffffffffffffffff1663ca6ad1e4826040518263ffffffff167c010000000000000000000000000000000000000000000000000000000002815260040180828152602001915050600060405180830381600087803b151561287957600080fd5b6102c65a03f1151561288a57600080fd5b50505050565b600061289a61424e565b6128a261424e565b6128aa61424e565b60006128b4614262565b6000808914806128c45750602089115b156128ce57600080fd5b60016040518059106128dd5750595b9080825280601f01601f19166020018201604052509550887f01000000000000000000000000000000000000000000000000000000000000000286600081518110151561292657fe5b9060200101907effffffffffffffffffffffffffffffffffffffffffffffffffffffffffffff1916908160001a90535060206040518059106129655750595b9080825280601f01601f19166020018201604052509450602060405180591061298b5750595b9080825280601f01601f191660200182016040525093506129aa6130ca565b925060208552424118600143034018602086015260208452826020850152606060405190810160405280868152602001878152602001858152509150612a278a6040805190810160405280600681526020017f72616e646f6d0000000000000000000000000000000000000000000000000000815250848b6133e4565b9050612c17818b780100000000000000000000000000000000000000000000000002846001600381101515612a5857fe5b60200201516002866000600381101515612a6e57fe5b60200201516000604051602001526040518082805190602001908083835b602083101515612ab15780518252602082019150602081019050602083039250612a8c565b6001836020036101000a03801982511681845116808217855250505050505090500191505060206040518083038160008661646e5a03f11515612af357600080fd5b505060405180519050866002600381101515612b0b57fe5b6020020151604051808577ffffffffffffffffffffffffffffffffffffffffffffffff191677ffffffffffffffffffffffffffffffffffffffffffffffff1916815260080184805190602001908083835b602083101515612b815780518252602082019150602081019050602083039250612b5c565b6001836020036101000a038019825116818451168082178552505050505050905001836000191660001916815260200182805190602001908083835b602083101515612be25780518252602082019150602081019050602083039250612bbd565b6001836020036101000a0380198251168184511680821785525050505050509050019450505050506040518091039020613748565b8096505050505050509392505050565b6000813b9050919050565b600080612c52731d3b2638a7cc9f2cb3d298a3da7a90b67e5506ed612c27565b1115612cf457731d3b2638a7cc9f2cb3d298a3da7a90b67e5506ed600260006101000a81548173ffffffffffffffffffffffffffffffffffffffff021916908373ffffffffffffffffffffffffffffffffffffffff160217905550612ceb6040805190810160405280600b81526020017f6574685f6d61696e6e6574000000000000000000000000000000000000000000815250613770565b600190506130c5565b6000612d1373c03a2615d5efaf5f49f60b7bb6583eaec212fdf1612c27565b1115612db55773c03a2615d5efaf5f49f60b7bb6583eaec212fdf1600260006101000a81548173ffffffffffffffffffffffffffffffffffffffff021916908373ffffffffffffffffffffffffffffffffffffffff160217905550612dac6040805190810160405280600c81526020017f6574685f726f707374656e330000000000000000000000000000000000000000815250613770565b600190506130c5565b6000612dd473b7a07bcf2ba2f2703b24c0691b5278999c59ac7e612c27565b1115612e765773b7a07bcf2ba2f2703b24c0691b5278999c59ac7e600260006101000a81548173ffffffffffffffffffffffffffffffffffffffff021916908373ffffffffffffffffffffffffffffffffffffffff160217905550612e6d6040805190810160405280600981526020017f6574685f6b6f76616e0000000000000000000000000000000000000000000000815250613770565b600190506130c5565b6000612e9573146500cfd35b22e4a392fe0adc06de1a1368ed48612c27565b1115612f375773146500cfd35b22e4a392fe0adc06de1a1368ed48600260006101000a81548173ffffffffffffffffffffffffffffffffffffffff021916908373ffffffffffffffffffffffffffffffffffffffff160217905550612f2e6040805190810160405280600b81526020017f6574685f72696e6b656279000000000000000000000000000000000000000000815250613770565b600190506130c5565b6000612f56736f485c8bf6fc43ea212e93bbf8ce046c7f1cb475612c27565b1115612fba57736f485c8bf6fc43ea212e93bbf8ce046c7f1cb475600260006101000a81548173ffffffffffffffffffffffffffffffffffffffff021916908373ffffffffffffffffffffffffffffffffffffffff160217905550600190506130c5565b6000612fd97320e12a1f859b3feae5fb2a0a32c18f5a65555bbf612c27565b111561303d577320e12a1f859b3feae5fb2a0a32c18f5a65555bbf600260006101000a81548173ffffffffffffffffffffffffffffffffffffffff021916908373ffffffffffffffffffffffffffffffffffffffff160217905550600190506130c5565b600061305c7351efaf4c8b3c9afbd5ab9f4bbc82784ab6ef8faa612c27565b11156130c0577351efaf4c8b3c9afbd5ab9f4bbc82784ab6ef8faa600260006101000a81548173ffffffffffffffffffffffffffffffffffffffff021916908373ffffffffffffffffffffffffffffffffffffffff160217905550600190506130c5565b600090505b919050565b600080600260009054906101000a900473ffffffffffffffffffffffffffffffffffffffff1673ffffffffffffffffffffffffffffffffffffffff16148061313c5750600061313a600260009054906101000a900473ffffffffffffffffffffffffffffffffffffffff16612c27565b145b1561314d5761314b6000612c32565b505b600260009054906101000a900473ffffffffffffffffffffffffffffffffffffffff1673ffffffffffffffffffffffffffffffffffffffff166338cc48316000604051602001526040518163ffffffff167c0100000000000000000000000000000000000000000000000000000000028152600401602060405180830381600087803b15156131db57600080fd5b6102c65a03f115156131ec57600080fd5b5050506040518051905073ffffffffffffffffffffffffffffffffffffffff16600360009054906101000a900473ffffffffffffffffffffffffffffffffffffffff1673ffffffffffffffffffffffffffffffffffffffff1614151561333657600260009054906101000a900473ffffffffffffffffffffffffffffffffffffffff1673ffffffffffffffffffffffffffffffffffffffff166338cc48316000604051602001526040518163ffffffff167c0100000000000000000000000000000000000000000000000000000000028152600401602060405180830381600087803b15156132da57600080fd5b6102c65a03f115156132eb57600080fd5b50505060405180519050600360006101000a81548173ffffffffffffffffffffffffffffffffffffffff021916908373ffffffffffffffffffffffffffffffffffffffff1602179055505b600360009054906101000a900473ffffffffffffffffffffffffffffffffffffffff1673ffffffffffffffffffffffffffffffffffffffff1663abaa5f3e6000604051602001526040518163ffffffff167c0100000000000000000000000000000000000000000000000000000000028152600401602060405180830381600087803b15156133c457600080fd5b6102c65a03f115156133d557600080fd5b50505060405180519050905090565b60006133ee614290565b6000600260009054906101000a900473ffffffffffffffffffffffffffffffffffffffff1673ffffffffffffffffffffffffffffffffffffffff16148061345f5750600061345d600260009054906101000a900473ffffffffffffffffffffffffffffffffffffffff16612c27565b145b156134705761346e6000612c32565b505b600260009054906101000a900473ffffffffffffffffffffffffffffffffffffffff1673ffffffffffffffffffffffffffffffffffffffff166338cc48316000604051602001526040518163ffffffff167c0100000000000000000000000000000000000000000000000000000000028152600401602060405180830381600087803b15156134fe57600080fd5b6102c65a03f1151561350f57600080fd5b5050506040518051905073ffffffffffffffffffffffffffffffffffffffff16600360009054906101000a900473ffffffffffffffffffffffffffffffffffffffff1673ffffffffffffffffffffffffffffffffffffffff1614151561365957600260009054906101000a900473ffffffffffffffffffffffffffffffffffffffff1673ffffffffffffffffffffffffffffffffffffffff166338cc48316000604051602001526040518163ffffffff167c0100000000000000000000000000000000000000000000000000000000028152600401602060405180830381600087803b15156135fd57600080fd5b6102c65a03f1151561360e57600080fd5b50505060405180519050600360006101000a81548173ffffffffffffffffffffffffffffffffffffffff021916908373ffffffffffffffffffffffffffffffffffffffff1602179055505b60036040518059106136685750595b90808252806020026020018201604052801561369e57816020015b61368b6142a4565b8152602001906001900390816136835790505b5090508360006003811015156136b057fe5b60200201518160008151811015156136c457fe5b906020019060200201819052508360016003811015156136e057fe5b60200201518160018151811015156136f457fe5b9060200190602002018190525083600260038110151561371057fe5b602002015181600281518110151561372457fe5b9060200190602002018190525061373d8686838661378a565b915050949350505050565b8060056000846000191660001916815260200190815260200160002081600019169055505050565b80600490805190602001906137869291906142b8565b5050565b60008061379561424e565b6000600260009054906101000a900473ffffffffffffffffffffffffffffffffffffffff1673ffffffffffffffffffffffffffffffffffffffff16148061380657506000613804600260009054906101000a900473ffffffffffffffffffffffffffffffffffffffff16612c27565b145b15613817576138156000612c32565b505b600260009054906101000a900473ffffffffffffffffffffffffffffffffffffffff1673ffffffffffffffffffffffffffffffffffffffff166338cc48316000604051602001526040518163ffffffff167c0100000000000000000000000000000000000000000000000000000000028152600401602060405180830381600087803b15156138a557600080fd5b6102c65a03f115156138b657600080fd5b5050506040518051905073ffffffffffffffffffffffffffffffffffffffff16600360009054906101000a900473ffffffffffffffffffffffffffffffffffffffff1673ffffffffffffffffffffffffffffffffffffffff16141515613a0057600260009054906101000a900473ffffffffffffffffffffffffffffffffffffffff1673ffffffffffffffffffffffffffffffffffffffff166338cc48316000604051602001526040518163ffffffff167c0100000000000000000000000000000000000000000000000000000000028152600401602060405180830381600087803b15156139a457600080fd5b6102c65a03f115156139b557600080fd5b50505060405180519050600360006101000a81548173ffffffffffffffffffffffffffffffffffffffff021916908373ffffffffffffffffffffffffffffffffffffffff1602179055505b600360009054906101000a900473ffffffffffffffffffffffffffffffffffffffff1673ffffffffffffffffffffffffffffffffffffffff16632ef3accc87866000604051602001526040518363ffffffff167c01000000000000000000000000000000000000000000000000000000000281526004018080602001838152602001828103825284818151815260200191508051906020019080838360005b83811015613aba578082015181840152602081019050613a9f565b50505050905090810190601f168015613ae75780820380516001836020036101000a031916815260200191505b509350505050602060405180830381600087803b1515613b0657600080fd5b6102c65a03f11515613b1757600080fd5b505050604051805190509150833a02670de0b6b3a764000001821115613b435760006001029250613ce8565b613b4c85613cf2565b9050600360009054906101000a900473ffffffffffffffffffffffffffffffffffffffff1673ffffffffffffffffffffffffffffffffffffffff1663c55c1cb683898985896000604051602001526040518663ffffffff167c0100000000000000000000000000000000000000000000000000000000028152600401808581526020018060200180602001848152602001838103835286818151815260200191508051906020019080838360005b83811015613c15578082015181840152602081019050613bfa565b50505050905090810190601f168015613c425780820380516001836020036101000a031916815260200191505b50838103825285818151815260200191508051906020019080838360005b83811015613c7b578082015181840152602081019050613c60565b50505050905090810190601f168015613ca85780820380516001836020036101000a031916815260200191505b5096505050505050506020604051808303818588803b1515613cc957600080fd5b6125ee5a03f11515613cda57600080fd5b505050506040518051905092505b5050949350505050565b613cfa61424e565b600080613d05614290565b6000806000613d1261424e565b60008060008b5199506000985089604051805910613d2d5750595b908082528060200260200182016040528015613d6357816020015b613d506142a4565b815260200190600190039081613d485790505b509750600096505b89871015613dfc578b87815181101515613d8157fe5b906020019060200201518888815181101515613d9957fe5b906020019060200201819052506003601760018a8a815181101515613dba57fe5b906020019060200201515103811515613dcf57fe5b048989815181101515613dde57fe5b90602001906020020151510101890198508680600101975050613d6b565b6000955060808a019450600160ff168901985088604051805910613e1d5750595b9080825280601f01601f191660200182016040525093505b85600160ff161115613edf57847f01000000000000000000000000000000000000000000000000000000000000000286600181101515613e7157fe5b1a7f0100000000000000000000000000000000000000000000000000000000000000028487815181101515613ea257fe5b9060200101907effffffffffffffffffffffffffffffffffffffffffffffffffffffffffffff1916908160001a9053508580600101965050613e35565b600096505b898710156141cb57605f7f0100000000000000000000000000000000000000000000000000000000000000028487815181101515613f1e57fe5b9060200101907effffffffffffffffffffffffffffffffffffffffffffffffffffffffffffff1916908160001a9053508580600101965050600092505b8787815181101515613f6957fe5b9060200190602002015151831015614154576000601784811515613f8957fe5b061415614091576018838989815181101515613fa157fe5b9060200190602002015151031015613fd357828888815181101515613fc257fe5b906020019060200201515103613fd6565b60175b91506040820191508590505b808603600160ff16111561409057817f01000000000000000000000000000000000000000000000000000000000000000281870360018110151561402257fe5b1a7f010000000000000000000000000000000000000000000000000000000000000002848781518110151561405357fe5b9060200101907effffffffffffffffffffffffffffffffffffffffffffffffffffffffffffff1916908160001a9053508580600101965050613fe2565b5b878781518110151561409f57fe5b90602001906020020151838151811015156140b657fe5b9060200101517f010000000000000000000000000000000000000000000000000000000000000090047f010000000000000000000000000000000000000000000000000000000000000002848781518110151561410f57fe5b9060200101907effffffffffffffffffffffffffffffffffffffffffffffffffffffffffffff1916908160001a90535085806001019650508280600101935050613f5b565b60ff7f010000000000000000000000000000000000000000000000000000000000000002848781518110151561418657fe5b9060200101907effffffffffffffffffffffffffffffffffffffffffffffffffffffffffffff1916908160001a90535085806001019650508680600101975050613ee4565b839a5050505050505050505050919050565b60e060405190810160405280600073ffffffffffffffffffffffffffffffffffffffff168152602001600015158152602001600081526020016000815260200160008152602001600061ffff168152602001600060ff1681525090565b602060405190810160405280600081525090565b602060405190810160405280600081525090565b6060604051908101604052806003905b61427a6142a4565b8152602001906001900390816142725790505090565b602060405190810160405280600081525090565b602060405190810160405280600081525090565b828054600181600116156101000203166002900490600052602060002090601f016020900481019282601f106142f957805160ff1916838001178555614327565b82800160010185558215614327579182015b8281111561432657825182559160200191906001019061430b565b5b5090506143349190614338565b5090565b61435a91905b8082111561435657600081600090555060010161433e565b5090565b905600a165627a7a723058206a1cec1773350c767579fedc92e7379a82554b0aab71af93790c6afc4ee149ad0029",
  "source": "pragma solidity ^0.4.18;\n\nimport \"./usingOraclize.sol\";\nimport \"./InfinityBankroll.sol\";\n\ncontract InfinityDice is InfinityCasinoGameInterface, usingOraclize {\n\n\t// events\n\tevent BuyRolls(bytes32 indexed oraclizeQueryId);\n\tevent LedgerProofFailed(bytes32 indexed oraclizeQueryId);\n\tevent Refund(bytes32 indexed oraclizeQueryId, uint256 amount);\n\t// each roll will be logged as 0 -> loss, 1 -> win\n\tevent DiceSmallBet(uint16 actualRolls, uint256 data1, uint256 data2, uint256 data3, uint256 data4);\n\tevent DiceLargeBet(bytes32 indexed oraclizeQueryId, uint16 actualRolls, uint256 data1, uint256 data2, uint256 data3, uint256 data4);\n\n\t// game data structure\n\tstruct DiceGameData {\n\t\taddress player;\n\t\tbool paidOut;\n\t\tuint256 start;\n\t\tuint256 etherReceived;\n\t\tuint256 betPerRoll;\n\t\tuint16 rolls;\n\t\tuint8 rollUnder;\n\t}\n\n\tmapping (bytes32 => DiceGameData) public diceData;\n\n\tuint256 public BANKROLL;\n\tuint256 public LIABILITIES;\n\tuint256 public AMOUNTWAGERED;\n\tuint256 public AMOUNTPAIDOUT;\n\tuint256 public GAMESPLAYED;\n\tuint256 public DEVELOPERSFUND;\n\n\tuint256 public ORACLIZEQUERYMAXTIME;\n\t//  // if betPerRoll is over this amount, oraclize query will trigger so that miners cannot cheat\n\t//  // if betPerRoll is under this amount, bet will be resolved immedately using blockhash. Miners will not cheat because \n\t//  // of the economic disincentive (see python simulation on our github)\n\tuint256 public MINBET_forORACLIZE;\n\tuint256 public MINBET;\n\tuint256 public ORACLIZEGASPRICE;\n\tuint8 public HOUSEEDGE_inTHOUSANDTHPERCENTS; // 1 thousanthpercent == 1/1000, \n\tuint8 public MAXWIN_inTHOUSANDTHPERCENTS; // determines the maximum win a user may receive.\n\n\tbool public GAMEPAUSED;\n\n\taddress public OWNER;\n\n\taddress public BANKROLLER;\n\tInfinityBankroll public BANKROLLERINSTANCE;\n\n\tfunction InfinityDice() public {\n\t\t// ledger proof is ALWAYS verified on-chain\n\n\t\t//////////////////////////////////////////////////////////////////\n\t\t// WARNING---THIS MUST BE ENABLED ON LIVE DEPLOYMENT!!!!!!!!!!\n\t\t//////////////////////////////////////////////////////////////////\n\t\t// oraclize_setProof(proofType_Ledger);\n\n\t\t// initially set gas price to 10 Gwei, but this can be changed later to account for network congestion.\n\t\toraclize_setCustomGasPrice(10000000000);\n\t\tORACLIZEGASPRICE = 10000000000;\n\n\t\t//////////////////////////////////////////////////////////////////\n\t\t// WARNING---THIS MUST BE REMOVED ON DEPLOYMENT!!!!!!!!\n\t\t//////////////////////////////////////////////////////////////////\n\t\tOAR = OraclizeAddrResolverI(0x6f485c8bf6fc43ea212e93bbf8ce046c7f1cb475);\n\n\t\tAMOUNTWAGERED = 0;\n\t\tAMOUNTPAIDOUT = 0;\n\t\tGAMESPLAYED = 0;\n\t\tGAMEPAUSED = false;\n\n\t\tORACLIZEQUERYMAXTIME = 6 hours;\n\t\tMINBET_forORACLIZE = 1250 finney; // 1250 finney or 1.25 ether is a limit to prevent an incentive for miners to cheat, any more will be forwarded to oraclize!\n\t\tMINBET = 10 finney;\n\t\tHOUSEEDGE_inTHOUSANDTHPERCENTS = 10; // 10/1000 == 1% house edge\n\t\tMAXWIN_inTHOUSANDTHPERCENTS = 20; // 20/1000 == 2% of bankroll \n\t\tOWNER = msg.sender;\n\t}\n\n\tfunction acceptEtherFromBankrollContract() payable public {\n\t\trequire(msg.sender == BANKROLLER);\n\n\t\tBANKROLL += msg.value;\n\t} \n\n\tfunction payEtherToBankrollContract(uint256 amountToSend) public {\n\t\trequire(msg.sender == BANKROLLER && amountToSend <= BANKROLL);\n\n\t\t// decrement bankroll by amount to send, and send the amount to the bankroll contract.\n\t\tBANKROLL -= amountToSend;\n\t\tBANKROLLERINSTANCE.receiveEtherFromGameAddress.value(amountToSend)();\n\t}\n\n\tfunction payDevelopersFund(address developer) public {\n\t\trequire(msg.sender == BANKROLLER);\n\n\t\tuint256 devFund = DEVELOPERSFUND;\n\n\t\tDEVELOPERSFUND = 0;\n\n\t\tdeveloper.transfer(devFund);\n\t}\n\n\t// owner only, management functions below...\n\n\t// WARNING!!!!! Can only set this function once!\n\tfunction setBankrollerContractOnce(address bankrollAddress) public {\n\t\t// require that BANKROLLER address == 0 (address not set yet), and coming from owner.\n\t\trequire(msg.sender == OWNER && BANKROLLER == address(0));\n\n\t\tBANKROLLER = bankrollAddress;\n\t\tBANKROLLERINSTANCE = InfinityBankroll(bankrollAddress);\n\t}\n\n\tfunction transferOwnership(address newOwner) public {\n\t\trequire(msg.sender == OWNER);\n\n\t\tOWNER = newOwner;\n\t}\n\n\tfunction setOraclizeQueryMaxTime(uint256 newTime) public {\n\t\trequire(msg.sender == OWNER);\n\n\t\tORACLIZEQUERYMAXTIME = newTime;\n\t}\n\n\t// store the gas price as a storage variable for easy reference,\n\t// and thne change the gas price using the proper oraclize function\n\tfunction setOraclizeQueryGasPrice(uint256 gasPrice) public {\n\t\trequire(msg.sender == OWNER);\n\n\t\tORACLIZEGASPRICE = gasPrice;\n\t\toraclize_setCustomGasPrice(gasPrice);\n\t}\n\n\tfunction setGamePaused(bool paused) public {\n\t\trequire(msg.sender == OWNER);\n\n\t\tGAMEPAUSED = paused;\n\t}\n\n\tfunction setHouseEdge(uint8 houseEdgeInThousandthPercents) public {\n\t\t// house edge cannot be set > 5%\n\t\trequire(msg.sender == OWNER && houseEdgeInThousandthPercents <= 50);\n\n\t\tHOUSEEDGE_inTHOUSANDTHPERCENTS = houseEdgeInThousandthPercents;\n\t}\n\n\tfunction setMinBetForOraclize(uint256 minBet) public {\n\t\trequire(msg.sender == OWNER);\n\n\t\tMINBET_forORACLIZE = minBet;\n\t}\n\n\tfunction setMinBet(uint256 minBet) public {\n\t\trequire(msg.sender == OWNER);\n\n\t\tMINBET = minBet;\n\t}\n\n\tfunction setMaxWin(uint8 newMaxWinInThousandthPercents) public {\n\t\t// cannot set bet limit greater than 5% of total BANKROLL.\n\t\trequire(msg.sender == OWNER && newMaxWinInThousandthPercents <= 50);\n\n\t\tMAXWIN_inTHOUSANDTHPERCENTS = newMaxWinInThousandthPercents;\n\t}\n\n\t// Can be removed after some testing...\n\tfunction emergencySelfDestruct() public {\n\t\trequire(msg.sender == OWNER);\n\n\t\tselfdestruct(msg.sender);\n\t}\n\n\t// require that the query time is too slow, bet has not been paid out, and either contract owner or player is calling this function.\n\t// this will only be used/can occur on queries that are forwarded to oraclize in the first place. All others will be paid out immediately.\n\tfunction refund(bytes32 oraclizeQueryId) public {\n\t\t// store data in memory for easy access.\n\t\tDiceGameData memory data = diceData[oraclizeQueryId];\n\n\t\trequire(block.timestamp - data.start >= ORACLIZEQUERYMAXTIME\n\t\t\t&& (msg.sender == OWNER || msg.sender == data.player)\n\t\t\t&& (!data.paidOut)\n\t\t\t&& LIABILITIES >= data.etherReceived);\n\n\t\t// set paidout == true, so users can't request more refunds, and a super delayed oraclize __callback will just get reverted\n\t\tdiceData[oraclizeQueryId].paidOut = true;\n\n\t\tLIABILITIES -= data.etherReceived;\n\t\tAMOUNTWAGERED -= data.etherReceived;\n\t\t// then transfer the original bet to the player.\n\t\tdata.player.transfer(data.etherReceived);\n\t\t// finally, log an event saying that the refund has processed.\n\t\tRefund(oraclizeQueryId, data.etherReceived);\n\t}\n\n\tfunction play(uint256 betPerRoll, uint16 rolls, uint8 rollUnder) public payable {\n\n\t\trequire(!GAMEPAUSED\n\t\t\t\t&& msg.value > 0\n\t\t\t\t&& betPerRoll >= MINBET\n\t\t\t\t&& rolls > 0\n\t\t\t\t&& rolls <= 1024\n\t\t\t\t&& betPerRoll <= msg.value\n\t\t\t\t&& rollUnder > 1\n\t\t\t\t&& rollUnder < 100\n\t\t\t\t// make sure that the player cannot win more than the max win (forget about house edge here)\n\t\t\t\t&& (betPerRoll * 100) / (rollUnder - 1) <= (BANKROLL * MAXWIN_inTHOUSANDTHPERCENTS) / 1000);\n\n\t\t// if bets are relatively small, resolve the bet in-house\n\t\tif (betPerRoll < MINBET_forORACLIZE) {\n\n\t\t\t// again, randomness will be determined by keccak256(blockhash, nonce)\n\t\t\t// store these in memory for cheap access.\n\t\t\tbytes32 blockHash = block.blockhash(block.number);\n\t\t\tuint256 gamesPlayed = GAMESPLAYED;\n\t\t\tuint8 houseEdgeInThousandthPercents = HOUSEEDGE_inTHOUSANDTHPERCENTS;\n\n\t\t\t// these are variables that will be modified when the game runs\n\t\t\t// keep track of the amount to payout to the player\n\t\t\t// this will actually start as the received amount of ether, and will be incremented\n\t\t\t// or decremented based on whether each roll is winning or losing.\n\t\t\t// when payout gets below the etherReceived/rolls amount, then the loop will terminate.\n\t\t\tuint256 etherAvailable = msg.value;\n\n\t\t\t// these are the logs for the frontend...\n\t\t\tuint256[] memory data = new uint256[](4);\n\n\t\t\tuint16 i = 0;\n\t\t\twhile (i < rolls && etherAvailable >= betPerRoll){\n\t\t\t\t// add 1 to gamesPlayed, this is the nonce.\n\t\t\t\tgamesPlayed++;\n\t\t\t\t// this roll is keccak256(blockhash, nonce) + 1 so between 1-100 (inclusive)\n\n\t\t\t\tif (uint8(uint256(keccak256(blockHash, gamesPlayed)) % 100) + 1 < rollUnder){\n\t\t\t\t\t// winner!\n\t\t\t\t\t// add the winnings to ether avail -> (betPerRoll * probability of hitting this number) * (house edge modifier)\n\t\t\t\t\tetherAvailable += (((betPerRoll * 100) / (rollUnder - 1) * (1000 - houseEdgeInThousandthPercents)) / 1000) - betPerRoll;\n\t\t\t\t\t// now assemble logs for the front end...\n\t\t\t\t\tif (i <= 255){\n\t\t\t\t\t\t// place a 1 in the i'th bit of data1\n\t\t\t\t\t\tdata[0] += uint256(2) ** (255 - i);\n\t\t\t\t\t}\n\t\t\t\t\telse if (i <= 511){\n\t\t\t\t\t\t// place a 1 in the (i-256)'th bit of data2\n\t\t\t\t\t\tdata[1] += uint256(2) ** (511 - i);\n\t\t\t\t\t}\n\t\t\t\t\telse if (i <= 767){\n\t\t\t\t\t\tdata[2] += uint256(2) ** (767 - i);\n\t\t\t\t\t}\n\t\t\t\t\telse {\n\t\t\t\t\t\t// where i <= 1023\n\t\t\t\t\t\tdata[3] += uint256(2) ** (1023 - i);\n\t\t\t\t\t}\n\t\t\t\t}\n\t\t\t\telse {\n\t\t\t\t\t// loser.\n\t\t\t\t\t// subtract betPerRoll, but leave 1 wei as a consolation prize :)\n\t\t\t\t\tetherAvailable -= (betPerRoll - 1);\n\t\t\t\t\t// we don't need to \"place a zero\" on this roll's spot in the binary strings, because they are init'ed to zero.\n\t\t\t\t}\n\n\t\t\t\ti++;\n\t\t\t}\n\n\t\t\t// every roll, we will transfer 10% of the profit to the developers fund (profit per roll = house edge)\n\t\t\t// that is: betPerRoll * (1%) * num rolls * (20%)\n\t\t\tuint256 developersCut = betPerRoll * houseEdgeInThousandthPercents * i / 5000;\n\t\t\t// add to DEVELOPERSFUND\n\t\t\tDEVELOPERSFUND += developersCut;\n\n\t\t\t// update the bankroll with whatever happened...\n\t\t\tBANKROLL -= (etherAvailable + developersCut - msg.value);\n\t\t\t// update amount wagered with betPerRoll * i (the amount of times the roll loop was executed)\n\t\t\tAMOUNTWAGERED += betPerRoll * i;\n\t\t\t// update amountpaidout with ether available minus original bet.\n\t\t\tAMOUNTPAIDOUT += etherAvailable;\n\t\t\t// update the gamesPlayer with how many games were played \n\t\t\tGAMESPLAYED = gamesPlayed;\n\t\t\t// finally transfer the ether to the player (no reentrancy issues here...)\n\t\t\tmsg.sender.transfer(etherAvailable);\n\t\t\t// log an event, with the outcome of the dice game, so that the frontend can parse it for the player.\n\t\t\tDiceSmallBet(i, data[0], data[1], data[2], data[3]);\n\t\t}\n\n\t\t// // otherwise, we need to save the game data into storage, and call oraclize\n\t\t// // to get the miner-interference-proof randomness for us.\n\t\t// // when oraclize calls back, we will reinstantiate the game data and resolve \n\t\t// // the spins with the random number given by oraclize \n\t\telse {\n\n\t\t\tbytes32 oraclizeQueryId;\n\n\t\t\tif (rolls <= 256){\n\t\t\t\toraclizeQueryId = oraclize_newRandomDSQuery(0, 30, 375000);\n\t\t\t\t// add the amount bet to the bankroll minus gas spent on oraclize \n\t\t\t\tBANKROLL -= 375000 * ORACLIZEGASPRICE;\n\t\t\t}\n\t\t\telse if (rolls <= 512){\n\t\t\t\toraclizeQueryId = oraclize_newRandomDSQuery(0, 30, 575000);\n\n\t\t\t\tBANKROLL -= 575000 * ORACLIZEGASPRICE;\n\t\t\t}\n\t\t\telse if (rolls <= 768){\n\t\t\t\toraclizeQueryId = oraclize_newRandomDSQuery(0, 30, 775000);\n\n\t\t\t\tBANKROLL -= 775000 * ORACLIZEGASPRICE;\n\t\t\t}\n\t\t\telse {\n\t\t\t\toraclizeQueryId = oraclize_newRandomDSQuery(0, 30, 1000000);\n\n\t\t\t\tBANKROLL -= 1000000 * ORACLIZEGASPRICE;\n\t\t\t}\n\n\t\t\tdiceData[oraclizeQueryId] = DiceGameData({\n\t\t\t\tplayer : msg.sender,\n\t\t\t\tpaidOut : false,\n\t\t\t\tstart : block.timestamp,\n\t\t\t\tetherReceived : msg.value,\n\t\t\t\tbetPerRoll : betPerRoll,\n\t\t\t\trolls : rolls,\n\t\t\t\trollUnder : rollUnder\n\t\t\t});\n\n\t\t\t// log an event for the frontend\n\t\t\tLIABILITIES += msg.value;\n\t\t\tBuyRolls(oraclizeQueryId);\n\t\t}\n\t}\n\n\t// oraclize callback.\n\t// Basically do the instant bet resolution in the play(...) function above, but with the random data \n\t// that oraclize returns, instead of getting psuedo-randomness from block.blockhash\n\n\t/////////////////////////////////////////////////////////////////////////////\n\t// WARNING---THIS NEED TO BE REENABLED UPON DEPLOYMENT!!!!!!!!!\n\t/////////////////////////////////////////////////////////////////////////////\n\n\t// function __callback(bytes32 _queryId, string _result, bytes _proof) public {\n\tfunction __callback(bytes32 _queryId, string _result) public {\n\n\t\tDiceGameData memory data = diceData[_queryId];\n\t\t// only need to check these, as all of the game based checks were already done in the play(...) function \n\t\trequire(msg.sender == oraclize_cbAddress() && !data.paidOut && data.player != address(0) && LIABILITIES >= data.etherReceived);\n\n\t\t// if the proof has failed, immediately refund the player his original bet...\n\n\t\t/////////////////////////////////////////////////////////////////////////////\n\t\t// WARNING---THIS NEEDS TO BE REENABLED UPON DEPLOYMENT!!!!!!!!!!!\n\t\t/////////////////////////////////////////////////////////////////////////////\n\n\t\t// if (oraclize_randomDS_proofVerify__returnCode(_queryId, _result, _proof) != 0){\n\t\tif (0 != 0){\n\n\t\t\t// set contract data\n\t\t\tdiceData[_queryId].paidOut = true;\n\n\t\t\tLIABILITIES -= data.etherReceived;\n\t\t\tAMOUNTWAGERED -= data.etherReceived;\n\t\t\t// transfer the original bet\n\t\t\tdata.player.transfer(data.etherReceived);\n\t\t\t// log these two events\n\t\t\tLedgerProofFailed(_queryId);\n\t\t\tRefund(_queryId, data.etherReceived);\n\t\t}\n\t\t// else, resolve the bet as normal with this miner-proof proven-randomness from oraclize.\n\t\telse {\n\t\t\t// save these in memory for cheap access\n\t\t\tuint256 gamesPlayed = GAMESPLAYED;\n\t\t\tuint8 houseEdgeInThousandthPercents = HOUSEEDGE_inTHOUSANDTHPERCENTS;\n\n\t\t\t// set the current balance available to the player as etherReceived\n\t\t\tuint256 etherAvailable = data.etherReceived;\n\n\t\t\t// logs for the frontend, as before...\n\t\t\tuint256[] memory logsData = new uint256[](4);\n\n\t\t\t// this loop is highly similar to the one from before. Instead of fully documented, the differences will be pointed out instead.\n\t\t\tuint16 i = 0;\n\t\t\twhile (i < data.rolls && etherAvailable >= data.betPerRoll){\n\t\t\t\t\n\t\t\t\tgamesPlayed++;\n\t\t\t\t// now, this roll is keccak256(_result, nonce) + 1 ... this is the main difference from using oraclize.\n\n\t\t\t\tif (uint8(uint256(keccak256(_result, gamesPlayed)) % 100) + 1 < data.rollUnder){\n\n\t\t\t\t\t// now, just get the respective fields from data.field unlike before where they were in seperate variables.\n\t\t\t\t\t\n\t\t\t\t\tetherAvailable += (((data.betPerRoll * 100) / (data.rollUnder - 1) * (1000 - houseEdgeInThousandthPercents)) / 1000) - data.betPerRoll;\n\t\t\t\t\t// now assemble logs for the front end...\n\t\t\t\t\tif (i <= 255){\n\t\t\t\t\t\t// place a 1 in the i'th bit of data1\n\t\t\t\t\t\tlogsData[0] += uint256(2) ** (255 - i);\n\t\t\t\t\t}\n\t\t\t\t\telse if (i <= 511){\n\t\t\t\t\t\t// place a 1 in the (i-256)'th bit of data2\n\t\t\t\t\t\tlogsData[1] += uint256(2) ** (511 - i);\n\t\t\t\t\t}\n\t\t\t\t\telse if (i <= 767){\n\t\t\t\t\t\tlogsData[2] += uint256(2) ** (767 - i);\n\t\t\t\t\t}\n\t\t\t\t\telse {\n\t\t\t\t\t\t// where i <= 1023\n\t\t\t\t\t\tlogsData[3] += uint256(2) ** (1023 - i);\n\t\t\t\t\t}\n\t\t\t\t}\n\t\t\t\telse {\n\t\t\t\t\t// loser.\n\t\t\t\t\t// subtract betPerRoll, but leave 1 wei as a consolation prize :)\n\t\t\t\t\tetherAvailable -= (data.betPerRoll - 1);\n\t\t\t\t}\n\t\t\t\ti++;\n\t\t\t}\n\n\t\t\t// data.betPerRoll\n\t\t\tuint256 developersCut = data.betPerRoll * houseEdgeInThousandthPercents * i / 5000;\n\n\t\t\tDEVELOPERSFUND += developersCut;\n\n\t\t\t// etherReceived was already added to BANKROLL in the play(...) function, so just sub etherAvailable.\n\t\t\tBANKROLL += data.etherReceived - (etherAvailable + developersCut);\n\t\t\tLIABILITIES -= data.etherReceived;\n\t\t\t// now, get betPerRoll from data\n\t\t\tAMOUNTWAGERED += data.betPerRoll * i;\n\n\t\t\tAMOUNTPAIDOUT += etherAvailable;\n\t\t\t\n\t\t\tGAMESPLAYED = gamesPlayed;\n\n\t\t\t// IMPORTANT! since we have inited this gameData structure, we need to signal that we have finished using it to prevent reentrancy\n\t\t\t// set paidOut = true;\n\t\t\tdiceData[_queryId].paidOut = true;\n\n\t\t\t// now get player from data, not msg.sender\n\t\t\tdata.player.transfer(etherAvailable);\n\n\t\t\t// log an event, now with the oraclize query id\n\t\t\tDiceLargeBet(_queryId, i, logsData[0], logsData[1], logsData[2], logsData[3]);\n\t\t}\n\t}\n\n\n// END OF CONTRACT. REPORT ANY BUGS TO DEVELOPMENT@INFINITYCASINO.IO\n// YES! WE _DO_ HAVE A BUG BOUNTY PROGRAM!\n\n// THANK YOU FOR READING THIS CONTRACT, HAVE A NICE DAY :)\n\n}\n",
  "sourcePath": "/Users/alexwaggoner/Desktop/InfinityCasino/InfinityCasinoV1_FINAL/contracts/InfinityDice.sol",
  "compiler": {
    "name": "solc",
    "version": "0.4.18+commit.9cf6e910.Emscripten.clang"
  },
  "schemaVersion": "1.0.1",
  "updatedAt": "2018-01-30T23:35:15.416Z"
}