{
  "contractName": "InfinityBankroll",
  "abi": [
    {
      "constant": true,
      "inputs": [],
      "name": "name",
      "outputs": [
        {
          "name": "",
          "type": "string"
        }
      ],
      "payable": false,
      "stateMutability": "view",
      "type": "function"
    },
    {
      "constant": true,
      "inputs": [],
      "name": "DEVELOPERSFUND",
      "outputs": [
        {
          "name": "",
          "type": "uint256"
        }
      ],
      "payable": false,
      "stateMutability": "view",
      "type": "function"
    },
    {
      "constant": false,
      "inputs": [
        {
          "name": "_spender",
          "type": "address"
        },
        {
          "name": "_value",
          "type": "uint256"
        }
      ],
      "name": "approve",
      "outputs": [
        {
          "name": "",
          "type": "bool"
        }
      ],
      "payable": false,
      "stateMutability": "nonpayable",
      "type": "function"
    },
    {
      "constant": true,
      "inputs": [],
      "name": "OWNER",
      "outputs": [
        {
          "name": "",
          "type": "address"
        }
      ],
      "payable": false,
      "stateMutability": "view",
      "type": "function"
    },
    {
      "constant": true,
      "inputs": [],
      "name": "totalSupply",
      "outputs": [
        {
          "name": "",
          "type": "uint256"
        }
      ],
      "payable": false,
      "stateMutability": "view",
      "type": "function"
    },
    {
      "constant": false,
      "inputs": [
        {
          "name": "_from",
          "type": "address"
        },
        {
          "name": "_to",
          "type": "address"
        },
        {
          "name": "_value",
          "type": "uint256"
        }
      ],
      "name": "transferFrom",
      "outputs": [
        {
          "name": "",
          "type": "bool"
        }
      ],
      "payable": false,
      "stateMutability": "nonpayable",
      "type": "function"
    },
    {
      "constant": false,
      "inputs": [
        {
          "name": "receiver",
          "type": "address"
        }
      ],
      "name": "withdrawDevelopersFund",
      "outputs": [],
      "payable": false,
      "stateMutability": "nonpayable",
      "type": "function"
    },
    {
      "constant": true,
      "inputs": [],
      "name": "decimals",
      "outputs": [
        {
          "name": "",
          "type": "uint8"
        }
      ],
      "payable": false,
      "stateMutability": "view",
      "type": "function"
    },
    {
      "constant": true,
      "inputs": [],
      "name": "WAITTIMEUNTILWITHDRAWORTRANSFER",
      "outputs": [
        {
          "name": "",
          "type": "uint256"
        }
      ],
      "payable": false,
      "stateMutability": "view",
      "type": "function"
    },
    {
      "constant": false,
      "inputs": [
        {
          "name": "_amountTokens",
          "type": "uint256"
        }
      ],
      "name": "cashoutINFSTokens",
      "outputs": [],
      "payable": false,
      "stateMutability": "nonpayable",
      "type": "function"
    },
    {
      "constant": false,
      "inputs": [
        {
          "name": "funds",
          "type": "uint256"
        },
        {
          "name": "gameAddress",
          "type": "address"
        }
      ],
      "name": "changeTargetGameFunds",
      "outputs": [],
      "payable": false,
      "stateMutability": "nonpayable",
      "type": "function"
    },
    {
      "constant": true,
      "inputs": [
        {
          "name": "",
          "type": "uint256"
        }
      ],
      "name": "TRUSTEDADDRESSES",
      "outputs": [
        {
          "name": "",
          "type": "address"
        }
      ],
      "payable": false,
      "stateMutability": "view",
      "type": "function"
    },
    {
      "constant": true,
      "inputs": [
        {
          "name": "_owner",
          "type": "address"
        }
      ],
      "name": "balanceOf",
      "outputs": [
        {
          "name": "",
          "type": "uint256"
        }
      ],
      "payable": false,
      "stateMutability": "view",
      "type": "function"
    },
    {
      "constant": false,
      "inputs": [
        {
          "name": "maxAmount",
          "type": "uint256"
        }
      ],
      "name": "changeMaximumInvestmentsAllowed",
      "outputs": [],
      "payable": false,
      "stateMutability": "nonpayable",
      "type": "function"
    },
    {
      "constant": true,
      "inputs": [
        {
          "name": "bankrollerAddress",
          "type": "address"
        }
      ],
      "name": "checkWhenContributorCanTransferOrWithdraw",
      "outputs": [
        {
          "name": "",
          "type": "uint256"
        }
      ],
      "payable": false,
      "stateMutability": "view",
      "type": "function"
    },
    {
      "constant": true,
      "inputs": [],
      "name": "BANKROLL",
      "outputs": [
        {
          "name": "",
          "type": "uint256"
        }
      ],
      "payable": false,
      "stateMutability": "view",
      "type": "function"
    },
    {
      "constant": true,
      "inputs": [],
      "name": "symbol",
      "outputs": [
        {
          "name": "",
          "type": "string"
        }
      ],
      "payable": false,
      "stateMutability": "view",
      "type": "function"
    },
    {
      "constant": false,
      "inputs": [
        {
          "name": "_to",
          "type": "address"
        },
        {
          "name": "_value",
          "type": "uint256"
        }
      ],
      "name": "transfer",
      "outputs": [
        {
          "name": "success",
          "type": "bool"
        }
      ],
      "payable": false,
      "stateMutability": "nonpayable",
      "type": "function"
    },
    {
      "constant": true,
      "inputs": [
        {
          "name": "gameAddress",
          "type": "address"
        }
      ],
      "name": "checkAmountAllocatedToGame",
      "outputs": [
        {
          "name": "",
          "type": "uint256"
        }
      ],
      "payable": false,
      "stateMutability": "view",
      "type": "function"
    },
    {
      "constant": false,
      "inputs": [
        {
          "name": "waitTime",
          "type": "uint256"
        }
      ],
      "name": "changeWaitTimeUntilWithdrawOrTransfer",
      "outputs": [],
      "payable": false,
      "stateMutability": "nonpayable",
      "type": "function"
    },
    {
      "constant": true,
      "inputs": [],
      "name": "getCurrentBalances",
      "outputs": [
        {
          "name": "",
          "type": "uint256"
        }
      ],
      "payable": false,
      "stateMutability": "view",
      "type": "function"
    },
    {
      "constant": true,
      "inputs": [
        {
          "name": "_owner",
          "type": "address"
        },
        {
          "name": "_spender",
          "type": "address"
        }
      ],
      "name": "allowance",
      "outputs": [
        {
          "name": "",
          "type": "uint256"
        }
      ],
      "payable": false,
      "stateMutability": "view",
      "type": "function"
    },
    {
      "constant": false,
      "inputs": [
        {
          "name": "newOwner",
          "type": "address"
        }
      ],
      "name": "transferOwnership",
      "outputs": [],
      "payable": false,
      "stateMutability": "nonpayable",
      "type": "function"
    },
    {
      "constant": false,
      "inputs": [],
      "name": "emergencySelfDestruct",
      "outputs": [],
      "payable": false,
      "stateMutability": "nonpayable",
      "type": "function"
    },
    {
      "constant": true,
      "inputs": [],
      "name": "MAXIMUMINVESTMENTSALLOWED",
      "outputs": [
        {
          "name": "",
          "type": "uint256"
        }
      ],
      "payable": false,
      "stateMutability": "view",
      "type": "function"
    },
    {
      "constant": false,
      "inputs": [],
      "name": "receiveEtherFromGameAddress",
      "outputs": [],
      "payable": true,
      "stateMutability": "payable",
      "type": "function"
    },
    {
      "constant": false,
      "inputs": [],
      "name": "assessBankrollOfAllGames",
      "outputs": [],
      "payable": false,
      "stateMutability": "nonpayable",
      "type": "function"
    },
    {
      "inputs": [],
      "payable": true,
      "stateMutability": "payable",
      "type": "constructor"
    },
    {
      "payable": true,
      "stateMutability": "payable",
      "type": "fallback"
    },
    {
      "anonymous": false,
      "inputs": [
        {
          "indexed": false,
          "name": "contributor",
          "type": "address"
        },
        {
          "indexed": false,
          "name": "etherContributed",
          "type": "uint256"
        },
        {
          "indexed": false,
          "name": "tokensReceived",
          "type": "uint256"
        }
      ],
      "name": "FundBankroll",
      "type": "event"
    },
    {
      "anonymous": false,
      "inputs": [
        {
          "indexed": false,
          "name": "contributor",
          "type": "address"
        },
        {
          "indexed": false,
          "name": "etherWithdrawn",
          "type": "uint256"
        },
        {
          "indexed": false,
          "name": "tokensCashedIn",
          "type": "uint256"
        }
      ],
      "name": "CashOut",
      "type": "event"
    },
    {
      "anonymous": false,
      "inputs": [
        {
          "indexed": true,
          "name": "_from",
          "type": "address"
        },
        {
          "indexed": true,
          "name": "_to",
          "type": "address"
        },
        {
          "indexed": false,
          "name": "_value",
          "type": "uint256"
        }
      ],
      "name": "Transfer",
      "type": "event"
    },
    {
      "anonymous": false,
      "inputs": [
        {
          "indexed": true,
          "name": "_owner",
          "type": "address"
        },
        {
          "indexed": true,
          "name": "_spender",
          "type": "address"
        },
        {
          "indexed": false,
          "name": "_value",
          "type": "uint256"
        }
      ],
      "name": "Approval",
      "type": "event"
    }
  ],
  "bytecode": "0x6060604052604080519081016040528073c7a2fb4c518350dace3e8899a854132aa6f2112c73ffffffffffffffffffffffffffffffffffffffff1673ffffffffffffffffffffffffffffffffffffffff16815260200173508bac59c401e3124e6742b3b5658bd7354b0cb773ffffffffffffffffffffffffffffffffffffffff1673ffffffffffffffffffffffffffffffffffffffff168152506005906002620000ab92919062000278565b5060008034111515620000bd57600080fd5b336000806101000a81548173ffffffffffffffffffffffffffffffffffffffff021916908373ffffffffffffffffffffffffffffffffffffffff1602179055503460018190555060643402905080600a60003373ffffffffffffffffffffffffffffffffffffffff1673ffffffffffffffffffffffffffffffffffffffff1681526020019081526020016000208190555080600960008282540192505081905550670de0b6b3a764000060076000600560006002811015156200017c57fe5b0160009054906101000a900473ffffffffffffffffffffffffffffffffffffffff1673ffffffffffffffffffffffffffffffffffffffff1673ffffffffffffffffffffffffffffffffffffffff16815260200190815260200160002081905550670de0b6b3a76400006007600060056001600281101515620001fa57fe5b0160009054906101000a900473ffffffffffffffffffffffffffffffffffffffff1673ffffffffffffffffffffffffffffffffffffffff1673ffffffffffffffffffffffffffffffffffffffff168152602001908152602001600020819055506000600381905550678ac7230489e800006002819055505062000340565b8260028101928215620002e7579160200282015b82811115620002e65782518260006101000a81548173ffffffffffffffffffffffffffffffffffffffff021916908373ffffffffffffffffffffffffffffffffffffffff160217905550916020019190600101906200028c565b5b509050620002f69190620002fa565b5090565b6200033d91905b808211156200033957600081816101000a81549073ffffffffffffffffffffffffffffffffffffffff02191690555060010162000301565b5090565b90565b61204280620003506000396000f30060606040526004361061015f576000357c0100000000000000000000000000000000000000000000000000000000900463ffffffff16806306fdde031461037157806307efbf2b146103ff578063095ea7b314610428578063117803e31461048257806318160ddd146104d757806323b872dd146105005780632cc5cfd614610579578063313ce567146105b25780633760ceb0146105e15780633b43deb41461060a57806357841b351461062d5780636e61446b1461066f57806370a08231146106d257806385d02c8a1461071f5780638a99fc87146107425780638e4ab74b1461078f57806395d89b41146107b8578063a9059cbb14610846578063ac0712c5146108a0578063b4a9d156146108ed578063bccabb7514610910578063dd62ed3e14610939578063f2fde38b146109a5578063f4463fb7146109de578063f8dad3db146109f3578063fbe00e8e14610a1c578063ffec893c14610a26575b6000806000806000806000610172610a3b565b96506002548710151561018457600080fd5b6001549550600954945034935060025484880111156101ae57600192508660025403935083340391505b868585028115156101bb57fe5b0490506101c88582610bc2565b6009819055506101d88685610bc2565b600181905550610227600a60003373ffffffffffffffffffffffffffffffffffffffff1673ffffffffffffffffffffffffffffffffffffffff1681526020019081526020016000205482610bc2565b600a60003373ffffffffffffffffffffffffffffffffffffffff1673ffffffffffffffffffffffffffffffffffffffff1681526020019081526020016000208190555042600860003373ffffffffffffffffffffffffffffffffffffffff1673ffffffffffffffffffffffffffffffffffffffff1681526020019081526020016000208190555082156102f5573373ffffffffffffffffffffffffffffffffffffffff166108fc839081150290604051600060405180830381858888f1935050505015156102f457600080fd5b5b7f880064a83c1fa6ca713bd8984374de84e55e28cbf7e8300163a0f4775e67dc34338583604051808473ffffffffffffffffffffffffffffffffffffffff1673ffffffffffffffffffffffffffffffffffffffff168152602001838152602001828152602001935050505060405180910390a150505050505050005b341561037c57600080fd5b610384610be0565b6040518080602001828103825283818151815260200191508051906020019080838360005b838110156103c45780820151818401526020810190506103a9565b50505050905090810190601f1680156103f15780820380516001836020036101000a031916815260200191505b509250505060405180910390f35b341561040a57600080fd5b610412610c19565b6040518082815260200191505060405180910390f35b341561043357600080fd5b610468600480803573ffffffffffffffffffffffffffffffffffffffff16906020019091908035906020019091905050610c1f565b604051808215151515815260200191505060405180910390f35b341561048d57600080fd5b610495610d1f565b604051808273ffffffffffffffffffffffffffffffffffffffff1673ffffffffffffffffffffffffffffffffffffffff16815260200191505060405180910390f35b34156104e257600080fd5b6104ea610d44565b6040518082815260200191505060405180910390f35b341561050b57600080fd5b61055f600480803573ffffffffffffffffffffffffffffffffffffffff1690602001909190803573ffffffffffffffffffffffffffffffffffffffff16906020019091908035906020019091905050610d4e565b604051808215151515815260200191505060405180910390f35b341561058457600080fd5b6105b0600480803573ffffffffffffffffffffffffffffffffffffffff16906020019091905050611019565b005b34156105bd57600080fd5b6105c5611285565b604051808260ff1660ff16815260200191505060405180910390f35b34156105ec57600080fd5b6105f461128a565b6040518082815260200191505060405180910390f35b341561061557600080fd5b61062b6004808035906020019091905050611290565b005b341561063857600080fd5b61066d600480803590602001909190803573ffffffffffffffffffffffffffffffffffffffff169060200190919050506114ca565b005b341561067a57600080fd5b6106906004808035906020019091905050611641565b604051808273ffffffffffffffffffffffffffffffffffffffff1673ffffffffffffffffffffffffffffffffffffffff16815260200191505060405180910390f35b34156106dd57600080fd5b610709600480803573ffffffffffffffffffffffffffffffffffffffff16906020019091905050611676565b6040518082815260200191505060405180910390f35b341561072a57600080fd5b61074060048080359060200190919050506116bf565b005b341561074d57600080fd5b610779600480803573ffffffffffffffffffffffffffffffffffffffff16906020019091905050611724565b6040518082815260200191505060405180910390f35b341561079a57600080fd5b6107a261176d565b6040518082815260200191505060405180910390f35b34156107c357600080fd5b6107cb611773565b6040518080602001828103825283818151815260200191508051906020019080838360005b8381101561080b5780820151818401526020810190506107f0565b50505050905090810190601f1680156108385780820380516001836020036101000a031916815260200191505b509250505060405180910390f35b341561085157600080fd5b610886600480803573ffffffffffffffffffffffffffffffffffffffff169060200190919080359060200190919050506117ac565b604051808215151515815260200191505060405180910390f35b34156108ab57600080fd5b6108d7600480803573ffffffffffffffffffffffffffffffffffffffff169060200190919050506119e3565b6040518082815260200191505060405180910390f35b34156108f857600080fd5b61090e6004808035906020019091905050611a2c565b005b341561091b57600080fd5b610923610a3b565b6040518082815260200191505060405180910390f35b341561094457600080fd5b61098f600480803573ffffffffffffffffffffffffffffffffffffffff1690602001909190803573ffffffffffffffffffffffffffffffffffffffff16906020019091905050611aa0565b6040518082815260200191505060405180910390f35b34156109b057600080fd5b6109dc600480803573ffffffffffffffffffffffffffffffffffffffff16906020019091905050611b27565b005b34156109e957600080fd5b6109f1611bc5565b005b34156109fe57600080fd5b610a06611c39565b6040518082815260200191505060405180910390f35b610a24611c3f565b005b3415610a3157600080fd5b610a39611d27565b005b600080600154905060056000600281101515610a5357fe5b0160009054906101000a900473ffffffffffffffffffffffffffffffffffffffff1673ffffffffffffffffffffffffffffffffffffffff16638e4ab74b6000604051602001526040518163ffffffff167c0100000000000000000000000000000000000000000000000000000000028152600401602060405180830381600087803b1515610ae057600080fd5b6102c65a03f11515610af157600080fd5b505050604051805190508101905060056001600281101515610b0f57fe5b0160009054906101000a900473ffffffffffffffffffffffffffffffffffffffff1673ffffffffffffffffffffffffffffffffffffffff16638e4ab74b6000604051602001526040518163ffffffff167c0100000000000000000000000000000000000000000000000000000000028152600401602060405180830381600087803b1515610b9c57600080fd5b6102c65a03f11515610bad57600080fd5b50505060405180519050810190508091505090565b6000808284019050838110151515610bd657fe5b8091505092915050565b6040805190810160405280600f81526020017f496e66696e69747920536861726573000000000000000000000000000000000081525081565b60045481565b60008082111515610c2f57600080fd5b81600b60003373ffffffffffffffffffffffffffffffffffffffff1673ffffffffffffffffffffffffffffffffffffffff16815260200190815260200160002060008573ffffffffffffffffffffffffffffffffffffffff1673ffffffffffffffffffffffffffffffffffffffff168152602001908152602001600020819055508273ffffffffffffffffffffffffffffffffffffffff163373ffffffffffffffffffffffffffffffffffffffff167f8c5be1e5ebec7d5bd14f71427d1e84f3dd0314c0f7b2291e5b200ac8c7c3b925846040518082815260200191505060405180910390a36001905092915050565b6000809054906101000a900473ffffffffffffffffffffffffffffffffffffffff1681565b6000600954905090565b600081600b60008673ffffffffffffffffffffffffffffffffffffffff1673ffffffffffffffffffffffffffffffffffffffff16815260200190815260200160002060003373ffffffffffffffffffffffffffffffffffffffff1673ffffffffffffffffffffffffffffffffffffffff1681526020019081526020016000205410158015610e1b575081600a60008673ffffffffffffffffffffffffffffffffffffffff1673ffffffffffffffffffffffffffffffffffffffff1681526020019081526020016000205410155b8015610e275750600082115b8015610e76575042600354600860008773ffffffffffffffffffffffffffffffffffffffff1673ffffffffffffffffffffffffffffffffffffffff168152602001908152602001600020540111155b1561100d5781600a60008573ffffffffffffffffffffffffffffffffffffffff1673ffffffffffffffffffffffffffffffffffffffff1681526020019081526020016000206000828254019250508190555081600a60008673ffffffffffffffffffffffffffffffffffffffff1673ffffffffffffffffffffffffffffffffffffffff1681526020019081526020016000206000828254039250508190555081600b60008673ffffffffffffffffffffffffffffffffffffffff1673ffffffffffffffffffffffffffffffffffffffff16815260200190815260200160002060003373ffffffffffffffffffffffffffffffffffffffff1673ffffffffffffffffffffffffffffffffffffffff168152602001908152602001600020600082825403925050819055508273ffffffffffffffffffffffffffffffffffffffff168473ffffffffffffffffffffffffffffffffffffffff167fddf252ad1be2c89b69c2b068fc378daa952ba7f163c4a11628f55a4df523b3ef846040518082815260200191505060405180910390a360019050611012565b600090505b9392505050565b60008060009054906101000a900473ffffffffffffffffffffffffffffffffffffffff1673ffffffffffffffffffffffffffffffffffffffff163373ffffffffffffffffffffffffffffffffffffffff1614151561107657600080fd5b6005600060028110151561108657fe5b0160009054906101000a900473ffffffffffffffffffffffffffffffffffffffff1673ffffffffffffffffffffffffffffffffffffffff16638579c10e836040518263ffffffff167c0100000000000000000000000000000000000000000000000000000000028152600401808273ffffffffffffffffffffffffffffffffffffffff1673ffffffffffffffffffffffffffffffffffffffff168152602001915050600060405180830381600087803b151561114157600080fd5b6102c65a03f1151561115257600080fd5b5050506005600160028110151561116557fe5b0160009054906101000a900473ffffffffffffffffffffffffffffffffffffffff1673ffffffffffffffffffffffffffffffffffffffff16638579c10e836040518263ffffffff167c0100000000000000000000000000000000000000000000000000000000028152600401808273ffffffffffffffffffffffffffffffffffffffff1673ffffffffffffffffffffffffffffffffffffffff168152602001915050600060405180830381600087803b151561122057600080fd5b6102c65a03f1151561123157600080fd5b505050600454905060006004819055508173ffffffffffffffffffffffffffffffffffffffff166108fc829081150290604051600060405180830381858888f19350505050151561128157600080fd5b5050565b601281565b60035481565b6000806000806000806000600a60003373ffffffffffffffffffffffffffffffffffffffff1673ffffffffffffffffffffffffffffffffffffffff168152602001908152602001600020549650868811158015611330575042600354600860003373ffffffffffffffffffffffffffffffffffffffff1673ffffffffffffffffffffffffffffffffffffffff168152602001908152602001600020540111155b801561133c5750600088115b151561134757600080fd5b6001549550611354610a3b565b945060095493508385890281151561136857fe5b04925085831115151561137a57600080fd5b60648381151561138657fe5b04915081830390506113988489611df8565b6009819055506113a88789611df8565b600a60003373ffffffffffffffffffffffffffffffffffffffff1673ffffffffffffffffffffffffffffffffffffffff168152602001908152602001600020819055506113f58684611df8565b60018190555061140760045483610bc2565b6004819055503373ffffffffffffffffffffffffffffffffffffffff166108fc829081150290604051600060405180830381858888f19350505050151561144d57600080fd5b7ffcbdb91de29bfe492b4eb558fc5850c6a9395cda4f7a16c03b5bbd5b1ebe4c0633828a604051808473ffffffffffffffffffffffffffffffffffffffff1673ffffffffffffffffffffffffffffffffffffffff168152602001838152602001828152602001935050505060405180910390a15050505050505050565b808073ffffffffffffffffffffffffffffffffffffffff16600560006002811015156114f257fe5b0160009054906101000a900473ffffffffffffffffffffffffffffffffffffffff1673ffffffffffffffffffffffffffffffffffffffff16148061159257508073ffffffffffffffffffffffffffffffffffffffff166005600160028110151561155857fe5b0160009054906101000a900473ffffffffffffffffffffffffffffffffffffffff1673ffffffffffffffffffffffffffffffffffffffff16145b151561159d57600080fd5b6000809054906101000a900473ffffffffffffffffffffffffffffffffffffffff1673ffffffffffffffffffffffffffffffffffffffff163373ffffffffffffffffffffffffffffffffffffffff161415156115f857600080fd5b82600760008473ffffffffffffffffffffffffffffffffffffffff1673ffffffffffffffffffffffffffffffffffffffff16815260200190815260200160002081905550505050565b60058160028110151561165057fe5b016000915054906101000a900473ffffffffffffffffffffffffffffffffffffffff1681565b6000600a60008373ffffffffffffffffffffffffffffffffffffffff1673ffffffffffffffffffffffffffffffffffffffff168152602001908152602001600020549050919050565b6000809054906101000a900473ffffffffffffffffffffffffffffffffffffffff1673ffffffffffffffffffffffffffffffffffffffff163373ffffffffffffffffffffffffffffffffffffffff1614151561171a57600080fd5b8060028190555050565b6000600860008373ffffffffffffffffffffffffffffffffffffffff1673ffffffffffffffffffffffffffffffffffffffff168152602001908152602001600020549050919050565b60015481565b6040805190810160405280600481526020017f494e46530000000000000000000000000000000000000000000000000000000081525081565b600081600a60003373ffffffffffffffffffffffffffffffffffffffff1673ffffffffffffffffffffffffffffffffffffffff16815260200190815260200160002054101580156117fd5750600082115b801561184c575042600354600860003373ffffffffffffffffffffffffffffffffffffffff1673ffffffffffffffffffffffffffffffffffffffff168152602001908152602001600020540111155b156119d35761189a600a60003373ffffffffffffffffffffffffffffffffffffffff1673ffffffffffffffffffffffffffffffffffffffff1681526020019081526020016000205483611df8565b600a60003373ffffffffffffffffffffffffffffffffffffffff1673ffffffffffffffffffffffffffffffffffffffff16815260200190815260200160002081905550611926600a60008573ffffffffffffffffffffffffffffffffffffffff1673ffffffffffffffffffffffffffffffffffffffff1681526020019081526020016000205483610bc2565b600a60008573ffffffffffffffffffffffffffffffffffffffff1673ffffffffffffffffffffffffffffffffffffffff168152602001908152602001600020819055508273ffffffffffffffffffffffffffffffffffffffff163373ffffffffffffffffffffffffffffffffffffffff167fddf252ad1be2c89b69c2b068fc378daa952ba7f163c4a11628f55a4df523b3ef846040518082815260200191505060405180910390a36119dc565b600090506119dd565b5b92915050565b6000600760008373ffffffffffffffffffffffffffffffffffffffff1673ffffffffffffffffffffffffffffffffffffffff168152602001908152602001600020549050919050565b6000809054906101000a900473ffffffffffffffffffffffffffffffffffffffff1673ffffffffffffffffffffffffffffffffffffffff163373ffffffffffffffffffffffffffffffffffffffff16148015611a8b5750625c49008111155b1515611a9657600080fd5b8060038190555050565b6000600b60008473ffffffffffffffffffffffffffffffffffffffff1673ffffffffffffffffffffffffffffffffffffffff16815260200190815260200160002060008373ffffffffffffffffffffffffffffffffffffffff1673ffffffffffffffffffffffffffffffffffffffff16815260200190815260200160002054905092915050565b6000809054906101000a900473ffffffffffffffffffffffffffffffffffffffff1673ffffffffffffffffffffffffffffffffffffffff163373ffffffffffffffffffffffffffffffffffffffff16141515611b8257600080fd5b806000806101000a81548173ffffffffffffffffffffffffffffffffffffffff021916908373ffffffffffffffffffffffffffffffffffffffff16021790555050565b6000809054906101000a900473ffffffffffffffffffffffffffffffffffffffff1673ffffffffffffffffffffffffffffffffffffffff163373ffffffffffffffffffffffffffffffffffffffff16141515611c2057600080fd5b3373ffffffffffffffffffffffffffffffffffffffff16ff5b60025481565b338073ffffffffffffffffffffffffffffffffffffffff1660056000600281101515611c6757fe5b0160009054906101000a900473ffffffffffffffffffffffffffffffffffffffff1673ffffffffffffffffffffffffffffffffffffffff161480611d0757508073ffffffffffffffffffffffffffffffffffffffff1660056001600281101515611ccd57fe5b0160009054906101000a900473ffffffffffffffffffffffffffffffffffffffff1673ffffffffffffffffffffffffffffffffffffffff16145b1515611d1257600080fd5b611d1e60015434610bc2565b60018190555050565b6000809054906101000a900473ffffffffffffffffffffffffffffffffffffffff1673ffffffffffffffffffffffffffffffffffffffff163373ffffffffffffffffffffffffffffffffffffffff16141515611d8257600080fd5b611dbc60056000600281101515611d9557fe5b0160009054906101000a900473ffffffffffffffffffffffffffffffffffffffff16611e11565b611df660056001600281101515611dcf57fe5b0160009054906101000a900473ffffffffffffffffffffffffffffffffffffffff16611e11565b565b6000828211151515611e0657fe5b818303905092915050565b6000806000808473ffffffffffffffffffffffffffffffffffffffff16638e4ab74b6000604051602001526040518163ffffffff167c0100000000000000000000000000000000000000000000000000000000028152600401602060405180830381600087803b1515611e8357600080fd5b6102c65a03f11515611e9457600080fd5b505050604051805190509350600760008673ffffffffffffffffffffffffffffffffffffffff1673ffffffffffffffffffffffffffffffffffffffff16815260200190815260200160002054925082841115611f765782840391508473ffffffffffffffffffffffffffffffffffffffff1663c0c37088836040518263ffffffff167c010000000000000000000000000000000000000000000000000000000002815260040180828152602001915050600060405180830381600087803b1515611f5d57600080fd5b6102c65a03f11515611f6e57600080fd5b50505061200f565b8383111561200e5783830390508473ffffffffffffffffffffffffffffffffffffffff16635cfd360a826040518263ffffffff167c01000000000000000000000000000000000000000000000000000000000281526004016000604051808303818588803b1515611fe657600080fd5b6125ee5a03f11515611ff757600080fd5b5050505061200760015482611df8565b6001819055505b5b50505050505600a165627a7a72305820aecbb05b0b04b3734c88134788b3d43754a7be4c9b0101d77b1562cec2e9ba8e0029",
  "source": "pragma solidity ^0.4.18;\n\nimport \"./SafeMath.sol\";\n\ncontract InfinityCasinoGameInterface {\n\tuint256 public BANKROLL;\n\tuint256 public DEVELOPERSFUND;\n\tfunction acceptEtherFromBankrollContract() payable public;\n\tfunction payEtherToBankrollContract(uint256 amountToSend) public;\n\tfunction payDevelopersFund(address developer) public;\n}\n\ncontract ERC20 {\n\tfunction totalSupply() constant public returns (uint supply);\n\tfunction balanceOf(address _owner) constant public returns (uint balance);\n\tfunction transfer(address _to, uint _value) public returns (bool success);\n\tfunction transferFrom(address _from, address _to, uint _value) public returns (bool success);\n\tfunction approve(address _spender, uint _value) public returns (bool success);\n\tfunction allowance(address _owner, address _spender) constant public returns (uint remaining);\n\tevent Transfer(address indexed _from, address indexed _to, uint _value);\n\tevent Approval(address indexed _owner, address indexed _spender, uint _value);\n}\n\ncontract InfinityBankroll is ERC20 {\n\n\tusing SafeMath for *;\n\n\t// constants for InfinityBankroll\n\n\taddress public OWNER;\n\tuint256 public BANKROLL;\n\tuint256 public MAXIMUMINVESTMENTSALLOWED;\n\tuint256 public WAITTIMEUNTILWITHDRAWORTRANSFER;\n\tuint256 public DEVELOPERSFUND;\n\n\t// this will be initialized as the trusted game addresses which will forward their ether\n\t// to the bankroll contract, and when players win, they will request the bankroll contract \n\t// to send these players their winnings.\n\t// Feel free to audit these contracts on etherscan...\n\taddress[2] public TRUSTEDADDRESSES = [0xc7A2fb4C518350DACe3e8899a854132aa6F2112c, 0x508BAC59c401e3124e6742B3B5658bD7354b0cb7];\n\tmapping(address => uint256) trustedAddressTargetAmount;\n\n\t// mapping to log the last time a user contributed to the bankroll \n\tmapping(address => uint256) contributionTime;\n\n\t// constants for ERC20 standard\n\tstring public constant name = \"Infinity Shares\";\n\tstring public constant symbol = \"INFS\";\n\tuint8 public constant decimals = 18;\n\t// variable total supply\n\tuint256 public totalSupply;\n\n\t// mapping to store tokens\n\tmapping(address => uint256) balances;\n\tmapping(address => mapping(address => uint256)) allowed;\n\n\t/////////////////\n\t// CONTRACT LOGIC\n\t/////////////////\n\n\t// events\n\tevent FundBankroll(address contributor, uint256 etherContributed, uint256 tokensReceived);\n\tevent CashOut(address contributor, uint256 etherWithdrawn, uint256 tokensCashedIn);\n\n\t// checks that an address is a \"trusted address of a legitimate infinity casino game\"\n\tmodifier addressInTrustedAddresses(address thisAddress){\n\n\t\trequire(TRUSTEDADDRESSES[0] == thisAddress || TRUSTEDADDRESSES[1] == thisAddress);\n\t\t_;\n\t}\n\n\t// initialization function \n\tfunction InfinityBankroll() public payable {\n\t\t// function is payable, owner of contract MUST \"seed\" contract with some ether, \n\t\t// so that the ratios are correct when tokens are being minted\n\t\trequire (msg.value > 0);\n\n\t\tOWNER = msg.sender;\n\n\t\t// update bankroll \n\t\tBANKROLL = msg.value;\n\t\t// 100 tokens/ether is the inital seed amount, so:\n\t\tuint256 initialTokens = msg.value * 100;\n\t\tbalances[msg.sender] = initialTokens;\n\t\ttotalSupply += initialTokens;\n\n\t\t// please note that these will be the GAME ADDRESSES which will forward their balances to the bankroll, and request to pay bettors from the bankroll.\n\t\ttrustedAddressTargetAmount[TRUSTEDADDRESSES[0]] = 1 ether;\n\t\ttrustedAddressTargetAmount[TRUSTEDADDRESSES[1]] = 1 ether;\n\t\t// CHANGE TO 6 HOURS ON LIVE DEPLOYMENT\n\t\tWAITTIMEUNTILWITHDRAWORTRANSFER = 0 seconds;\n\t\tMAXIMUMINVESTMENTSALLOWED = 10 ether;\n\t}\n\n\t///////////////////////////////////////////////\n\t// VIEW FUNCTIONS -> mainly for frontend\n\t/////////////////////////////////////////////// \n\n\tfunction checkAmountAllocatedToGame(address gameAddress) view public returns(uint256) {\n\t\treturn trustedAddressTargetAmount[gameAddress];\n\t}\n\n\tfunction checkWhenContributorCanTransferOrWithdraw(address bankrollerAddress) view public returns(uint256){\n\t\treturn contributionTime[bankrollerAddress];\n\t}\n\n\n\t///////////////////////////////////////////////\n\t// BANKROLL CONTRACT -> GAME CONTRACT functions\n\t/////////////////////////////////////////////// \n\n\t// get sum(current balances) from all games and this contract \n\tfunction getCurrentBalances() view public returns(uint256) {\n\t\tuint256 totalBalances = BANKROLL;\n\t\t// loop through all trusted addresses, and get their balances \n\t\ttotalBalances += InfinityCasinoGameInterface(TRUSTEDADDRESSES[0]).BANKROLL();\n\t\ttotalBalances += InfinityCasinoGameInterface(TRUSTEDADDRESSES[1]).BANKROLL();\n\n\t\treturn totalBalances;\n\t}\n\n\t// this function ADDS to the bankroll of infinity casino, and credits the bankroller a proportional\n\t// amount of tokens so they may withdraw their tokens later\n\t// also if there is only a limited amount of space left in the bankroll, a user can just send as much \n\t// ether as they want, because they will be able to contribute up to the maximum, and then get refunded the rest.\n\tfunction () public payable {\n\t\t// save these in memory for cheap access.\n\t\tuint256 currentTotalBankroll = getCurrentBalances();\n\n\t\trequire(currentTotalBankroll < MAXIMUMINVESTMENTSALLOWED);\n\n\t\tuint256 currentContractBankroll = BANKROLL;\n\t\tuint256 currentSupplyOfTokens = totalSupply;\n\t\tuint256 contributedEther = msg.value;\n\n\t\tbool contributionTakesBankrollOverLimit;\n\t\tuint256 ifContributionTakesBankrollOverLimit_Refund;\n\n\t\tif (currentTotalBankroll + contributedEther > MAXIMUMINVESTMENTSALLOWED){\n\t\t\t// allow the bankroller to contribute up to the allowed amount of ether, and refund the rest.\n\t\t\tcontributionTakesBankrollOverLimit = true;\n\t\t\t// set contributed ether as (MAXIMUMINVESTMENTSALLOWED - BANKROLL)\n\t\t\tcontributedEther = MAXIMUMINVESTMENTSALLOWED - currentTotalBankroll;\n\t\t\t// refund the rest of the ether, which is (original amount sent - (maximum amount allowed - bankroll))\n\t\t\tifContributionTakesBankrollOverLimit_Refund = msg.value - contributedEther;\n\t\t}\n\n\t\t// determine the ratio of contribution versus total BANKROLL.\n\t\tuint256 creditedTokens = contributedEther * currentSupplyOfTokens / currentTotalBankroll;\n\n\t\t// now update the total supply of tokens and bankroll amount\n\t\ttotalSupply = SafeMath.add(currentSupplyOfTokens, creditedTokens);\n\t\tBANKROLL = SafeMath.add(currentContractBankroll, contributedEther);\n\n\t\t// now credit the user with his amount of contributed tokens \n\t\tbalances[msg.sender] = SafeMath.add(balances[msg.sender], creditedTokens);\n\t\tcontributionTime[msg.sender] = block.timestamp;\n\n\t\t// now look if the attempted contribution would have taken the BANKROLL over the limit, \n\t\t// and if true, refund the excess ether.\n\t\tif (contributionTakesBankrollOverLimit){\n\t\t\tmsg.sender.transfer(ifContributionTakesBankrollOverLimit_Refund);\n\t\t}\n\n\t\t// log an event\n\t\tFundBankroll(msg.sender, contributedEther, creditedTokens);\n\t}\n\n\tfunction cashoutINFSTokens(uint256 _amountTokens) public {\n\t\t// In effect, this function is the OPPOSITE of the un-named payable function above^^^\n\t\t// this allows bankrollers to \"cash out\" at any time, and receive the ether that they contributed, PLUS\n\t\t// a proportion of any ether that was earned by the smart contact when their ether was \"staking\", However\n\t\t// this works in reverse as well. Any net losses of the smart contract will be absorbed by the player in like manner.\n\t\t// Of course, due to the constant house edge, a bankroller that leaves their ether in the contract long enough\n\t\t// is effectively guaranteed to withdraw more ether than they originally \"staked\"\n\n\t\t// save in memory for cheap access.\n\t\tuint256 tokenBalance = balances[msg.sender];\n\t\t// verify that the contributor has enough tokens to cash out this many, and has waited the required time.\n\t\trequire(_amountTokens <= tokenBalance \n\t\t\t&& contributionTime[msg.sender] + WAITTIMEUNTILWITHDRAWORTRANSFER <= block.timestamp\n\t\t\t&& _amountTokens > 0);\n\t\t// save in memory for cheap access.\n\t\tuint256 currentContractBankroll = BANKROLL;\n\t\tuint256 currentTotalBankroll = getCurrentBalances();\n\t\tuint256 currentSupplyOfTokens = totalSupply;\n\n\t\t// calculate the token withdraw ratio based on current supply \n\t\tuint256 withdrawEther = _amountTokens * currentTotalBankroll / currentSupplyOfTokens;\n\t\t// now verify that this requested amount of ether is contained in the bankroll contract...\n\t\trequire(withdrawEther <= currentContractBankroll);\n\t\t// developers take 1% of withdrawls \n\t\tuint256 developersCut = withdrawEther / 100;\n\t\tuint256 contributorAmount = withdrawEther - developersCut;\n\n\t\t// now update the total supply of tokens by subtracting the tokens that are being \"cashed in\"\n\t\ttotalSupply = SafeMath.sub(currentSupplyOfTokens, _amountTokens);\n\t\t// and update the users supply of tokens \n\t\tbalances[msg.sender] = SafeMath.sub(tokenBalance, _amountTokens);\n\t\t// update the bankroll based on the withdrawn amount.\n\t\tBANKROLL = SafeMath.sub(currentContractBankroll, withdrawEther);\n\t\t// update the developers fund based on this calculated amount \n\t\tDEVELOPERSFUND = SafeMath.add(DEVELOPERSFUND, developersCut);\n\n\t\t// lastly, transfer the ether back to the bankroller. Thanks for your contribution!\n\t\tmsg.sender.transfer(contributorAmount);\n\n\t\t// log an event\n\t\tCashOut(msg.sender, contributorAmount, _amountTokens);\n\t}\n\n\t////////////////////\n\t// OWNER FUNCTIONS:\n\t////////////////////\n\t// Please, be aware that the owner ONLY can change:\n\t\t// 1. The owner can increase or decrease the target amount for a game. They can then call the updater function to give/receive the ether from the game.\n\t\t// 1. The wait time until a user can withdraw or transfer their tokens after purchase through the default function above ^^^\n\t\t// 2. The owner can change the maximum amount of investments allowed. This allows for early contributors to guarantee\n\t\t// \t\ta certain percentage of the bankroll so that their stake cannot be diluted immediately. However, be aware that the \n\t\t//\t\tmaximum amount of investments allowed will be raised over time. This will allow for higher bets by gamblers, resulting\n\t\t// \t\tin higher dividends for the bankrollers\n\t\t// 3. The owner can freeze payouts to bettors. This will be used in case of an emergency, and the contract will reject all\n\t\t//\t\tnew bets as well. This does not mean that bettors will lose their money without recompense. They will be allowed to call the \n\t\t// \t\t\"refund\" function in the respective game smart contract once payouts are un-frozen.\n\t\t// 4. Finally, the owner can modify and withdraw the developers reward, which will fund future development, including new games, a sexier frontend,\n\t\t// \t\tand TRUE DAO governance so that onlyOwner functions don't have to exist anymore ;) and in order to effectively react to changes \n\t\t// \t\tin the market (lower the percentage because of increased competition in the blockchain casino space, etc.)\n\n\tfunction transferOwnership(address newOwner) public {\n\t\trequire(msg.sender == OWNER);\n\n\t\tOWNER = newOwner;\n\t}\n\n\tfunction changeTargetGameFunds(uint256 funds, address gameAddress) public addressInTrustedAddresses(gameAddress) {\n\t\trequire(msg.sender == OWNER);\n\n\t\ttrustedAddressTargetAmount[gameAddress] = funds;\n\t}\n\n\tfunction assessBankrollOfGame(address gameAddress) private {\n\n\t\tuint256 gameBalance = InfinityCasinoGameInterface(gameAddress).BANKROLL();\n\t\tuint256 suggestedBalance = trustedAddressTargetAmount[gameAddress];\n\t\t\n\t\t// if the game has made money, then send a call to the game requesting that the game sends excess balance to the bankroll \n\t\tif (gameBalance > suggestedBalance) {\n\t\t\t// calculate the amount that the contract must pay \n\t\t\tuint256 mustPay = gameBalance - suggestedBalance;\n\t\t\t// force the game contract to pay this amount of ether \n\t\t\tInfinityCasinoGameInterface(gameAddress).payEtherToBankrollContract(mustPay);\n\t\t\t// BANKROLL does not need to be incremented, it already does in receiveEtherFromGameAddress()\n\t\t}\n\t\t// reload bankroll with ether.\n\t\telse if (suggestedBalance > gameBalance){\n\t\t\t// calulate the amount the contract must give, in ether.\n\t\t\tuint256 mustGive = suggestedBalance - gameBalance;\n\t\t\t// give this contract ether, to it's correct function \n\t\t\tInfinityCasinoGameInterface(gameAddress).acceptEtherFromBankrollContract.value(mustGive)();\n\t\t\t\n\t\t\t// decrease BANKROLL by the amount given out \n\t\t\tBANKROLL = SafeMath.sub(BANKROLL, mustGive);\n\t\t}\n\t\t// if suggestedBalance == gameBalance, then do nothing\n\t}\n\n\t// use the above function, but just loop through all games.\n\tfunction assessBankrollOfAllGames() public {\n\t\trequire(msg.sender == OWNER);\n\n\t\tassessBankrollOfGame(TRUSTEDADDRESSES[0]);\n\t\tassessBankrollOfGame(TRUSTEDADDRESSES[1]);\n\t}\n\n\tfunction receiveEtherFromGameAddress() payable public addressInTrustedAddresses(msg.sender) {\n\t\t// this function will get called from the game contracts, and just sends ether to the main contract and increments the bankroll.\n\t\tBANKROLL = SafeMath.add(BANKROLL, msg.value);\n\t}\n\n\tfunction changeWaitTimeUntilWithdrawOrTransfer(uint256 waitTime) public {\n\t\t// waitTime MUST be less than or equal to 10 weeks\n\t\trequire (msg.sender == OWNER && waitTime <= 6048000);\n\n\t\tWAITTIMEUNTILWITHDRAWORTRANSFER = waitTime;\n\t}\n\n\tfunction changeMaximumInvestmentsAllowed(uint256 maxAmount) public {\n\t\trequire(msg.sender == OWNER);\n\n\t\tMAXIMUMINVESTMENTSALLOWED = maxAmount;\n\t}\n\n\n\tfunction withdrawDevelopersFund(address receiver) public {\n\t\trequire(msg.sender == OWNER);\n\n\t\t// first get developers fund from each game \n        InfinityCasinoGameInterface(TRUSTEDADDRESSES[0]).payDevelopersFund(receiver);\n\n\t\tInfinityCasinoGameInterface(TRUSTEDADDRESSES[1]).payDevelopersFund(receiver);\n\n\n\t\t// now send the developers fund from the main contract.\n\t\tuint256 developersFund = DEVELOPERSFUND;\n\n\t\t// set developers fund to zero\n\t\tDEVELOPERSFUND = 0;\n\n\t\t// transfer this amount to the owner!\n\t\treceiver.transfer(developersFund);\n\t}\n\n\t// Can be removed after some testing...\n\tfunction emergencySelfDestruct() public {\n\t\trequire(msg.sender == OWNER);\n\n\t\tselfdestruct(msg.sender);\n\t}\n\n\t///////////////////////////////\n\t// BASIC ERC20 TOKEN OPERATIONS\n\t///////////////////////////////\n\n\tfunction totalSupply() constant public returns(uint){\n\t\treturn totalSupply;\n\t}\n\n\tfunction balanceOf(address _owner) constant public returns(uint){\n\t\treturn balances[_owner];\n\t}\n\n\tfunction transfer(address _to, uint256 _value) public returns (bool success){\n\t\tif (balances[msg.sender] >= _value && _value > 0 && contributionTime[msg.sender] + WAITTIMEUNTILWITHDRAWORTRANSFER <= block.timestamp){\n\t\t\t// safely subtract\n\t\t\tbalances[msg.sender] = SafeMath.sub(balances[msg.sender], _value);\n\t\t\tbalances[_to] = SafeMath.add(balances[_to], _value);\n\t\t\t// log event \n\t\t\tTransfer(msg.sender, _to, _value);\n\t\t}\n\t\telse {\n\t\t\treturn false;\n\t\t}\n\t}\n\n\tfunction transferFrom(address _from, address _to, uint _value) public returns(bool){\n\t\tif (allowed[_from][msg.sender] >= _value && balances[_from] >= _value && _value > 0 && contributionTime[_from] + WAITTIMEUNTILWITHDRAWORTRANSFER <= block.timestamp){\n\t\t\tbalances[_to] += _value;\n    \t\tbalances[_from] -= _value;\n    \t\tallowed[_from][msg.sender] -= _value;\n    \t\tTransfer(_from, _to, _value);\n    \t\treturn true;\n   \t\t} \n    \telse { \n    \t\treturn false;\n    \t}\n\t}\n\t\n\tfunction approve(address _spender, uint _value) public returns(bool){\n\t\trequire(_value > 0);\n\t\tallowed[msg.sender][_spender] = _value;\n\t\tApproval(msg.sender, _spender, _value);\n\t\treturn true;\n\t}\n\t\n\tfunction allowance(address _owner, address _spender) constant public returns(uint){\n\t\treturn allowed[_owner][_spender];\n\t}\n}",
  "sourcePath": "/Users/alexwaggoner/Desktop/InfinityCasino/InfinityCasinoV1_FINAL/contracts/InfinityBankroll.sol",
  "compiler": {
    "name": "solc",
    "version": "0.4.18+commit.9cf6e910.Emscripten.clang"
  },
  "schemaVersion": "1.0.1",
  "updatedAt": "2018-01-30T23:35:15.411Z"
}